:100000000C94D5010C947F1C0C94F2010C94F20119
:100010000C94F2010C94F2010C94F2010C94F20194
:100020000C94F2010C94F2010C94A5210C94792209
:100030000C94FE1A0C94F2010C94F2010C94F2014F
:100040000C94F2010C94F2010C94F2010C94F20164
:100050000C94F2010C94A11B0C94F2010C94F2018B
:100060000C94F2010C94F2010C94F2010C94F20144
:100070000C94F2010C94F2010C94F2010C94F20134
:100080000C94F2010C94F2010C94F2010C94F20124
:100090000C94F2010C94F2010C94F2010C94F20114
:1000A0000C94F2010C94F2010C94F20135001E0044
:1000B0001F002000210022002B0014001A0008005D
:1000C00015001700390004001621072409280A002A
:1000D0002A221D001B000600190005000000000078
:1000E0002F003000E3002C0000000000E000292277
:1000F000E2002842230024002500260027002A00D1
:100100001C0018000C001200130031000B000D3809
:100110000E340F3133003400110010003600370068
:1001200038002A222C00E7002D002E0000000000DD
:100130002842E6002932E4000000000035001E00DD
:100140001F002000210022002B001A000F001500C4
:1001500005001D00390016000B00110017003600C5
:100160002A220900100019000600380000000000D3
:100170002F003000E3002C0000000000E0002922E6
:10018000E2002842230024002500260027002A0040
:1001900033001400180007000D0031003700040080
:1001A000080012000C0034000A0013001B000E00AF
:1001B0001C002A322C00E7002D002E000000000059
:1001C0002842E6002932E4000000000000003A0066
:1001D0003B003C003D003E000000440045000000A4
:1001E0000000000039000000E000E200E300000031
:1001F0002A220000000000000000000000000000B3
:1002000000520152E300000000000000E00029223B
:10021000E20028003F00400041004200430000008F
:10022000000000000000000000000000500051002D
:1002300052004F0000000000A800AE0000000000C7
:1002400000002A320000E700AA00A9000000000018
:100250002800E6002932E400000000002C034400DE
:1002600061006300740079006C002D004D00610096
:100270006E00750066006F0072006D00200028009F
:10028000350078003600290000000E03740073006A
:1002900068006F0072007400000004030904090282
:1002A0003B00020100A0FA09040000010301010063
:1002B0000921110100012244000705810308000102
:1002C00009040100010300000009211101000122BD
:1002D0007B000705820320000112010002000000DC
:1002E000084D44363501000102000105010902A153
:1002F0000185020901A10005091901290815002538
:100300000195087501810205010930093115812522
:100310007F95027508810609381581257F9501753D
:10032000088106050C0A38021581257F950175089C
:100330008106C0C005010980A101850319012AB702
:1003400000150126B700950175108100C0050C0944
:1003500001A101850419012AA002150126A0029518
:100360000175108100C005010906A101050719E00A
:1003700029E7150025019508750181029501750889
:1003800081010507190029FF150026FF0095067554
:100390000881000508190129051500250195057535
:1003A000019102950175039101C011241FBECFEF89
:1003B000DAE0DEBFCDBF11E0A0E0B1E0E0E8FAE4B2
:1003C00002C005900D92AC3AB107D9F722E0ACEA31
:1003D000B1E001C01D92AA3CB207E1F70E94F113FF
:1003E0000C94FF240C9400008330B8F46C30A8F413
:1003F000463098F450E096E0699F400D511D11245D
:10040000FA0198E4899FE00DF11D1124EE0FFF1F02
:10041000E455FF4F85919491089581E090E008950F
:100420000E94F401089581E008950E941302089546
:1004300081E008950E94130208950E941A0208950F
:1004400008950E9420020895A6E0B0E0EAE2F2E0FA
:100450000C945B2449835A839E833091B301898134
:100460009A8131111AC03E81332399F0222389F0F9
:100470000E942308182F682F89819A810E94FF0704
:1004800069817A81812F0E940C0F2696E3E00C94FB
:1004900077240E941108182FF3CF0E942308698146
:1004A0007A81F1CFFC01262F4081518162817381D5
:1004B000848195810E9424020895CF93DF93EC01FB
:1004C00061E00E945202BE010E941502DF91CF91AD
:1004D0000895CF93DF93EC0160E00E945202BE01C9
:1004E0000E942102DF91CF91089581E008950E943A
:1004F00075020895CF93C82F0E94D4068C2F0E94B6
:1005000077022FEF84E39CE0215080409040E1F798
:1005100000C00000CF91089581E00E947A020E94FD
:10052000C51B089580E00E947A020E94D61B0895A0
:100530000F931F93CF93DF938C0161E00E945202CF
:10054000EC01B8010E941D02811106C080E0DF911C
:10055000CF911F910F910895B801CE010E945E19AD
:100560008823A1F3B801CE010E949A15882371F364
:10057000B801CE010E947015882341F3F8018581EE
:10058000882361F0C330FCE7DF07E9F058F4C115B8
:10059000ECE7DE07A9F0C130DC47B9F0C8010E94E2
:1005A0001802D5CFCB358CE7D807A9F0CC35ECE7CE
:1005B000DE0771F0CA35DC4789F70E944B0CEECF9D
:1005C0000E948C02C3CF0E94530C0E949202BECFA5
:1005D0000E94410CE3CF0E944F0CE0CF0E94DB1A37
:1005E0000E940E0308950E9412030E94E01A0895CB
:1005F00081E008950895CF93DF93D82F0E94F802E9
:10060000C82F882319F08D2F0E94FA028C2FDF91BA
:10061000CF91089508950E94FB02089580E00E9402
:100620000B0308950E94A7190E940B030895CF930E
:100630000E94A719C82F8091AE018C1779F0C09342
:10064000AE010E946A1B6093AF017093B00180936A
:10065000B1019093B2018C2F0E940B03CF910895AA
:10066000ADE0B0E0E6E3F3E00C945C244887598702
:100670006A877B878C879D8791110E94810B1F82DF
:1006800086E0FE013896DE01119601900D928A9562
:10069000E1F78D8181110DC029813A814B815C8107
:1006A0006D817E818F810E94CB0A2D96E2E00C94B1
:1006B0007824CE0101960E945D028111EDCFF5CF25
:1006C000FC012481213021F4808191810E94550810
:1006D0000895662329F00E94FB160E94CE17089504
:1006E0000E945517FACFCF93C82F8823C9F08238BC
:1006F000C9F40E94BB1981FD13C089E30E94711ADD
:100700000E94F00B2FEF87EE93E021508040904045
:10071000E1F700C0000089E30E94791A0E94F00B03
:10072000CF9108958338A1F40E94BB1980FDF8CFC2
:1007300083E50E94711A0E94F00B2FEF81EE94E086
:10074000215080409040E1F700C0000083E5E4CFF5
:100750008438A1F40E94BB1982FDE2CF87E40E9495
:10076000711A0E94F00B2FEF81EE94E0215080402F
:100770009040E1F700C0000087E4CECF8CEF8C0FF3
:10078000813A98F48C2F0E949C148111C9CF8C2F30
:100790000E94361A882329F08C2F0E94791A0E9411
:1007A000F00B8C2F0E94711AB9CF80E28C0F883029
:1007B00048F4C77081E001C0880FCA95EAF70E942B
:1007C000640BACCFEBE5EC0FE33040F4F0E0EE5916
:1007D000FE4F808190E00E94D719A2CFE8E5EC0F90
:1007E000EB3150F4F0E0EE0FFF1FE45DFE4F80812F
:1007F00091810E94FC1994CF83E38C0F833108F020
:100800008FCF61E08C2F0E9469038ACF882309F47F
:1008100056C0823879F40E94BB1981FF50C089E329
:100820000E94711A0E94F00B89E30E94791A0E94BB
:10083000F00B0895833859F40E94BB1980FF3FC024
:1008400083E50E94711A0E94F00B83E5EECF843895
:1008500059F40E94BB1982FF32C087E40E94711ACA
:100860000E94F00B87E4E1CF9CEF980F913AE8F2F9
:1008700090E2980F983050F4877091E001C0990F82
:100880008A95EAF7892F0E946A0BD1CF9BE5980FD2
:10089000933028F490E080E00E94D719089598E5FD
:1008A000980F9B3128F490E080E00E94FC19089595
:1008B00093E3980F933118F460E00E946903089560
:1008C0001F93CF93DF93182FEB010E9473032097A0
:1008D00039F4812F0E940604DF91CF911F91089572
:1008E0008FE99FE00197F1F700C000002197EFCF5B
:1008F00070E060E0893311F460E570E00E9460040C
:100900000895882321F00E94640B0E94F00B089543
:10091000882321F00E946A0B0E94F00B0895B0E03A
:10092000A0E0E5E9F4E00C9455246C01D62FC72F24
:10093000FC011581068102950F700E945A0BE82E6A
:100940008823F9F0E12E1123E1F08C2F807F803491
:1009500061F080E28D0F883008F18C2F807E80322C
:1009600021F4D230D8F00023C9F080919A0282FF9E
:1009700015C082E00E94150C0E945A0B91E0E82EEF
:10098000E926BC2EB2949FE0B922FBE0FB15B8F13A
:10099000EB2DF0E0EF5FFA4D0C944624E12CF1CF03
:1009A0000C2F0F70C07F11F00295007F112399F07A
:1009B000002359F080E28D0F883010F0D11107C06C
:1009C000802F0E94640B0E94F00B8D2F5AC0802F45
:1009D0000E94740BF8CF8D2F0E940604002379F03B
:1009E00080E28D0F883010F0D11104C0802F0E945A
:1009F0006A0B03C0802F0E947A0B0E94F00BEB2D34
:100A0000E850FF0B349720F40E94A7190E940B03B3
:100A1000EE2089F00E94560B80FD0DC0F601158274
:100A20000E94500B0E945D07C6010E949B060E9417
:100A3000500B0E946D07CDB7DEB7E9E00C9471242E
:100A40002C2F2F70F22EC07FC03219F0F29480EF5D
:100A5000F822DD2341F0D130D1F1112309F444C053
:100A60000023F1F0B2CF80919A0282FD15C01123CC
:100A700059F0FF2029F08F2D0E94640B0E94F00B8B
:100A800080E00E947303BBCF80E00E940604FF2039
:100A900009F4B5CF8F2DABCF112369F0011104C03C
:100AA0008F2D0E948104ABCF013009F0A8CF8F2D8C
:100AB0000E94980BA4CF0111A2CF8F2D0E94880411
:100AC0008F2D0E94A40B8F2D0E94880B98CF11238D
:100AD00021F0063008F093CFE3CF053008F08FCF38
:100AE0008F2D0E9488048BCF0023D1F3D93349F492
:100AF0003FEF87EE93E0315080409040E1F700C037
:100B000000008D2F0E9406047ACF8C2F8695869543
:100B1000837069F0813009F072CF8D2F9C2F937014
:100B2000111102C080E090E00E94FC1968CF8D2F67
:100B30009C2F9370111102C080E090E00E94D719A1
:100B40005ECF612F8D2F0E94690359CF8C2F837048
:100B5000A1F5111154CF4D2F429546954770440F82
:100B6000440F2D2F2F7030E0042E02C0220F331FB0
:100B70000A94E2F790E080E0D4FF09C08FE090E0B3
:100B800002C0880F991F4A95E2F780959095C69507
:100B9000C695C370822B932BC23049F058F4C130F4
:100BA00019F00E942D072BCF0E94240728CF0E9406
:100BB000360725CF0E94210722CF8695112311F0F9
:100BC0008C2F8170882309F41ACF4D2F42954695BA
:100BD0004770440F440F2D2F2F7030E0042E02C0B9
:100BE000220F331F0A94E2F790E080E0D4FF09C09F
:100BF0008FE090E002C0880F991F4A95E2F7809538
:100C00009095C695C695C370822B932BC23049F040
:100C100058F4C13019F00E949807F1CE0E948F0756
:100C2000EECE0E94A107EBCE0E944507E8CECF7022
:100C3000112329F08C2F0E945D078D2F32CF8D2F2D
:100C40000E9488048C2F0E946D07D9CED23F41F1BB
:100C500060F4D03FB9F0D13F81F0112309F443C0D3
:100C60000111B3CE8C2F8F711FC0D33F01F1D43F40
:100C7000A1F780919A0282FD24C08C2F8F711123DD
:100C800011F312C0112341F0053008F0B8CE8C2FBB
:100C90008F710E947F07B3CE063008F0B0CEF7CF39
:100CA0008C2F8F711111CFCF0E945D07A8CE112319
:100CB00029F08C2F8F710E945107A1CE0E944C0702
:100CC0009ECE112331F063E08C2F8F710E94F70BC1
:100CD00096CE81E00E94150C023008F490CE82E09E
:100CE0000E94150C8CCE002359F0D93309F009CF9E
:100CF000EFEFF7EE23E0E150F0402040E1F7FFCEC8
:100D00008C2F8F71A0CF0F931F93CF93DF93EC01A4
:100D1000688179818D810E9460088C010E94AA07F8
:100D20000E942007B801CE010E948F04DF91CF916D
:100D30001F910F910895CF93DF93EC018C8188234D
:100D400099F0CE010E949802811111C00E945A0BA5
:100D5000882351F08D81882339F080919A0282FF97
:100D600003C082E00E94150CDF91CF910895CE015F
:100D70000E948306CE010E946902F6CF90E080E0D7
:100D80000E94D71990E080E00E94FC190E94810B1C
:100D90000E94F00B0E94EA170E94CE1708950E944D
:100DA000811A0E94BE0608950E94710B0E94CF0610
:100DB000089592959F70963091F058F4925F9F70CD
:100DC000923058F4803F19F030F4883E30F481E0DE
:100DD00008959A5FF4CF843FD1F380E00895883E70
:100DE000B0F3813FD1F7F3CFFC012481222339F006
:100DF000808191810E9455080E94D906089580E063
:100E00000895A6E0B0E0E7E0F7E00C945C242696B5
:100E1000E2E00C947824A7E0B0E0E1E1F7E00C9484
:100E20005C242796E2E00C94782408950E9415072C
:100E300008950E9416079093DB018093DA010895CC
:100E400008950E94190708952091DA013091DB017D
:100E5000822B932B0E94190708952091DA0130917B
:100E6000DB01822393230E94190708952091DA0160
:100E70003091DB01822793270E94190708950E9471
:100E8000150708950E943F0708950E944207909316
:100E9000D9018093D801089590E080E00E94450731
:100EA000089521E030E0A90102C0440F551F8A9542
:100EB000E2F7CA010E944507089521E030E002C030
:100EC000220F331F8A95E2F78091D8019091D901C2
:100ED000822B932B0E944507089521E030E002C049
:100EE000220F331F8A95E2F7209530958091D80123
:100EF0009091D901822393230E944507089521E010
:100F000030E002C0220F331F8A95E2F78091D801AA
:100F10009091D901822793270E9445070895209137
:100F2000D8013091D901822B932B0E944507089557
:100F30002091D8013091D901822393230E94450743
:100F400008952091D8013091D901822793270E94DA
:100F5000450708950895262F277091E001C0990F45
:100F60002A95EAF723E0769567952A95E1F7660FCB
:100F7000771F660F771FFA01E60FF71F50E040E07A
:100F8000682F70E08191DF0111979B01042E02C050
:100F9000369527950A94E2F7217021952827292371
:100FA00028272C934F5F5F4F4430510559F7089520
:100FB000A82FA77023E0969587952A95E1F7880FCB
:100FC000991F880F991FFB01E80FF91F50E040E0BF
:100FD00080E0219130E00A2E02C0369527950A94D0
:100FE000E2F721703327042E01C0220F0A94EAF79A
:100FF000822B4F5F5F4F4430510559F70895262FDC
:101000009C3070F4863060F4682F70E086E0989F22
:10101000600D711D112444EB51E0822F0E94AB073B
:101020000895292F9C3068F4863058F490E064EBE2
:1010300071E036E0239F800D911D11240E94D80796
:10104000089580E00895B0E0A0E0E9E2F8E00C94B3
:1010500055247C010091D8011091D9018091DA01C9
:101060009091DB01082B192BCFE0D0E0CC24C39466
:10107000D12CBC2EC6010C2E02C0880F991F0A94D9
:10108000E2F780239123892B49F4219790F7B12C23
:101090008B2DCDB7DEB7E9E00C947124B7018C2F0E
:1010A0000E94180F019789F3F3CFCF93DF93EC01E0
:1010B0000E942308BE010E94180FDF91CF9108956E
:1010C0001F93CF93DF93EB019091B301992339F0F4
:1010D000CB010E945508DF91CF911F91089588237D
:1010E00069F0CB010E942308182F682FCE010E94BF
:1010F000FF07BE01812F0E94180FEDCFCB010E9488
:101100001108182FF6CF1F93CF93DF93C091DC0106
:1011100017E08091DD018C1304C0DF91CF911F9106
:101120000895D0E01C9FF0011D9FF00D1124E252A4
:10113000FE4F208131814281538164817581868196
:101140000E940B072196C770E4CF209116023091C0
:101150001702409118025091190260911A02709181
:101160001B0280911C020E940B070895CF93DF930E
:1011700080911C02807F09F04DC080911B02882362
:1011800009F448C0E091DC015091DD01C0911702E3
:10119000D0911602609118027091190247E05E1713
:1011A000C9F18E2F90E0E49FF0011124E252FE4F2E
:1011B0002481222391F1489FF001499FF00D1124D1
:1011C000DF01A252BE4F11962C9111972C1325C00E
:1011D0002C912D1322C015962C91159721111DC00D
:1011E00012962D913C91261B370B283C3105A8F413
:1011F00080911C028F70806180931C02EC51FE4F25
:1012000080818F708061808386E192E00E949B06DE
:101210000E948308DF91CF910895FC013196E77019
:10122000BECF482F2091DC019091DD0157E02913BA
:1012300002C080E0089530E0529FF001539FF00D0E
:101240001124E252FE4F8181681306C08081481349
:1012500003C085818111EECF2F5F3F4F2770E7CF0D
:10126000A4E1B0E0E6E3F9E00C9452248C0186E0BE
:10127000F801DE011F9601900D928A95E1F7D801E1
:1012800014968C9114971596EC90159796E1A92ECB
:1012900092E0B92E90911A0291111FC08823D1F0CB
:1012A000EE20A9F0C8010E94F406F82E882379F0F8
:1012B00087E0F801D50101900D928A95E1F7C5010B
:1012C0000E9460030E94B6080E94A5083DC0C801A4
:1012D0000E949B06FF24F39437C0F801C080D180A0
:1012E00082809380F0901B022091180230911902A5
:1012F000A401421B530BFF2009F4F6C0483C5105E2
:1013000008F0A5C0882301F19091170280911C027A
:10131000282F207F09F067C09D111BC090911602F5
:10132000C91217C0E11059C08F70806180931C02F0
:101330000E94A50886E192E00E949B0680911C0213
:10134000D80116968C93F12C8F2D6496ECE00C94BA
:101350006E24E11042C06D2D8C2D0E941109E82EE3
:10136000882371F086E192E00E949B0687E0E6E127
:10137000F2E0DF011D928A95E9F70E94A508E3CF0C
:10138000CF86D88A8F8598890E945508292F229563
:101390002F70243058F49F70223088F0992399F0F0
:1013A000F8019681907F79F4FE2CCECF2A5F2F70C2
:1013B000223068F0C8010E949B06EF2CF5CF9923DC
:1013C00011F0882389F3805E883070F3F3CF803F7B
:1013D00058F3815F833070F7E7CF80911C02816002
:1013E00080931C02B0CF9D1107C090911602C912C4
:1013F00003C0EE2009F49CC0C8010E94F4068823B3
:1014000009F465CFEE2009F462CF80911C0280328E
:1014100088F02091160230911702398728879B8621
:101420008A8690911A029C871D868E87CE01089627
:101430000E949B0687E0F801A6E1B2E001900D92C0
:101440008A95E1F70E94B6080E94A50843CF9091C3
:101450001C02292F207F91F4682D9A8A898AA6017F
:101460007A899E2D0E94010786E192E00E949B06E8
:1014700087E0F50111928A95E9F77FCF882309F477
:1014800063CF809117028D1111C080911602C8128E
:101490000DC0E1100BC016969C93C8010E949B06DC
:1014A00087E0F50111928A95E9F74ECFC8010E94B5
:1014B000F406882309F40BCFEE2009F408CF8091BD
:1014C0001C02803208F4B6CF209116023091170228
:1014D0003A8329839C828B8290911A029D831E827B
:1014E0008F83CE010196A4CF483C510508F045C03A
:1014F000882309F4EFCEFE2CEE2009F4E8CE80918B
:1015000017028D112CC080911602C81228C080913C
:101510001C0280FD1BC0982F907FC1F016968C9303
:101520001697903F39F0982F907F905F8F70892B9E
:1015300016968C93C8010E949B0687E0F801A6E1ED
:10154000B2E001900D928A95E1F7BECE87E0F801F6
:10155000A6E1B2E001900D928A95E1F7F5CEC801BF
:101560000E94F406811166CF80911C0281608093F5
:101570001C02C8010E949B06E7CE682D9A8A898AC0
:10158000A6017A899E2D0E94010787E0F50111923C
:101590008A95E9F799CEAEE0B0E0E1EDFAE00C947F
:1015A0005B24288739874A875B876C877D878E878E
:1015B000CE0108960E9430098823B1F06C8566231D
:1015C00041F0288539854A855B857D858E850E9419
:1015D0000B0717E08091DC019091DD0189133DC07C
:1015E0002E96E3E00C94772487E0FE013896DE0126
:1015F000119601900D928A95E1F78C85882349F325
:101600002091DD0130E0C901019687709927409152
:10161000DC014817190699F097E0929FD001939F3B
:10162000B00D1124A252BE4FFE01319601900D92D1
:101630009A95E1F78093DD010E948308CACF0E944A
:10164000D4061092DD011092DC0187E0E6E1F2E0C1
:10165000DF011D928A95E9F7BCCF819FC00111245B
:1016600082529E4F0E943009882309F4B9CFE0913D
:10167000DC011E9FF0011124E252FE4F20813181D6
:10168000428153816481758186810E940B0780911C
:10169000DC0190E00196877099278093DC019ACF56
:1016A00080912502869586958695089580912502DC
:1016B0008770089590912502977081E009F480E089
:1016C000089580913102089590913102892B809381
:1016D00031020895809590913102982390933102C0
:1016E000089510923102089590913002892B8093D1
:1016F00030020895809590913002982390933002A3
:10170000089510923002089508950E94840B089560
:1017100090912602292F282331F0809589238093E8
:1017200026020E94850B089508950E94940B089547
:1017300090912702292F2823281729F0982B90937E
:1017400027020E94950B089590912702292F2823A4
:1017500031F080958923809327020E94950B08958C
:1017600080912702882329F01092270280E00E94AE
:10177000950B08950F931F93CF93DF930091000172
:1017800010910101C091310280913002C82B8091EB
:101790002702882331F0C82B0E94211A81110E9450
:1017A000B00BF801C083C0910001D091010148E065
:1017B00050E06DE172E0CE010E949724892B59F030
:1017C00088E0FE01ADE1B2E001900D928A95E1F76B
:1017D000CE010E94BE19DF91CF911F910F91089504
:1017E0000E94BA0B089508950E94F30B08959091FA
:1017F0009A0292FF11C098E0899F90011124622BF8
:10180000609325020E945D0780912502869586954A
:1018100086950E94F40B08950E945D07089510922A
:10182000250280E00E94F40B089590912502809596
:10183000892380932502282F277069F4891759F08E
:1018400090919A0292FF07C08695869586950E9490
:101850006D070E940F0C089590919A0292FB222727
:1018600020F9281769F080FB92F990939A028091F1
:10187000990290919A020E94740C82E00E94150CC9
:10188000089580919A0282FB882780F991E0892748
:101890000E942C0C089581E00E942C0C089580E099
:1018A0000E942C0C08956FEF7FEF90E080E00E9483
:1018B000E924089590E080E00E94B52421E0853E6F
:1018C0009E4F09F020E0822F089582E090E00E9470
:1018D000AD24089583E090E00E94AD24089584E053
:1018E00090E00E94B5240895BC0184E090E00E943D
:1018F000E9240895AB01BC018FE090E00E94DD2453
:101900000895AB01BC0183E190E00E94DD240895BD
:1019100060E070E0CB010E94810C089560E070E00F
:10192000CB010E947A0C0E94880C0895A8E0B0E0D8
:10193000ECE9FCE00C945C2465EE7EEF90E080E046
:101940000E94E92460E082E090E00E94CB2481E0E4
:1019500090E09093DB018093DA0161E083E090E016
:101960000E94CB2460E074E184E090E00E94E924CE
:1019700060E086E090E00E94CB2460E087E090E0A9
:101980000E94CB2440E050E0BA0188E090E00E9441
:10199000DD2460E083E290E00E94CB2460E08CE0F4
:1019A00090E00E94CB2460E08DE090E00E94CB2488
:1019B00019821A821B821C821D821E821F82188637
:1019C00048E050E067E170E0CE0101960E94BB2440
:1019D00040E050E0BA018FE190E00E94DD240E94D7
:1019E0008E0C2896E2E00C9478240E94960C0895C0
:1019F000682F8EE090E00E94CB240895A6E0B0E02E
:101A0000E4E0FDE00C945A240E945E1B8C0180915E
:101A10003202909133028017910781F019821A8265
:101A20000E945E1B682F49815A81792F80E090E0E7
:101A30000E94300310933302009332022696E4E0B2
:101A40000C9476240E9434106093440270934502F3
:101A50008093460290934702609340027093410244
:101A600080934202909343020895089508950E943E
:101A7000350D089508950E943A0D089581E0089566
:101A80008EE490E10E9406140E94360D0E94370DEC
:101A900008950E9405120895089508950E944C0D1E
:101AA0000E944D0D08950E945A0C811102C00E949F
:101AB000F50C0E94650C809348020E946F0C909375
:101AC0009A02809399020E946A0C90E00E9421077A
:101AD0008091D8019091D9010E94420708950E94F7
:101AE000551B0E940E100E940B120E945C110E9456
:101AF000530D0E940A030E9458150E941D120E9455
:101B00003B0D0895A6E0B0E0E8E8FDE00C94532416
:101B10000E943E0D81110CC00E94FE0C0E94051215
:101B20000E940C180E9417032696EBE00C946F2479
:101B30000E947F1184E3A82E82E0B82E750110E088
:101B4000F70101917F01812F0E9458101F5F1C3007
:101B500009F441C00817A1F38091480281FD0E9459
:101B60005E100E94490DC82E10E099249394812F95
:101B70000E945810082FF50181915F01081729F183
:101B8000F12CEE24E394D02ED8268D2D8E21A9F0B1
:101B9000CC2099F0F9821A830E945E1B9C838B8370
:101BA0009D8291E0802F8E2109F490E049815A8135
:101BB0006B817C818D810E943003F394EE0CF6E002
:101BC000FF12E3CFF501319700831F5F1C3079F6D8
:101BD0000E94220DA3CF0813BFCF9ECF1F93CF9398
:101BE000DF930E941D0FEC01C11580E5D807F0F5C9
:101BF000C11580E4D80708F09CC0C03ED10520F58F
:101C0000CD3CD10508F082C0C83AD10578F4C53A78
:101C1000D10508F073C0C130D10519F1209709F141
:101C2000C430D105F0F4D0E0C0E01BC0C33CD10506
:101C3000D0F7C85AD0E0CC0FDD1FCB59DE4F09904A
:101C4000D881C02DD4640DC0C11580E2D80708F03A
:101C5000D1C0C11581E0D80708F05AC0C83ED105EF
:101C600010F7CE01DF91CF911F910895C03682E524
:101C7000D80718F5C03482E5D80708F06BC0C03229
:101C800082E5D80708F05FC0C11582E5D80708F4DF
:101C900097C02C2F2695269580E2289F900111242D
:101CA0008C2F8370C1E0D0E002C0CC0FDD1F8A957D
:101CB000E2F7C22BD32BDD68D4CFC03A82E5D80738
:101CC00060F4C03882E5D80708F459C0CF71D0E07D
:101CD000DC2FCC27C46FD06AC4CFC03C82E5D807C4
:101CE00008F462C0C03E82E5D80708F09CCFDC2F24
:101CF000CC27CC27DF71C06FD06AB3CFC55AD0E0F4
:101D0000C556DE4FC881D0E0D064ABCFD065A9CF37
:101D10008D2F0E94BF0F182FCE0199270E941D0FF3
:101D2000C12FD0E0DC2FCC27CC27DF71C82BD92BDB
:101D300098CFCE0199270E941D0FCC27DF70C82BAA
:101D4000D92BD06A8ECFCF71D0E0DC2FCC27C16FDA
:101D5000D06A87CF2C2F26952695277080E2289F62
:101D6000900111248C2F8370C1E0D0E002C0CC0F11
:101D7000DD1F8A95E2F7C22BD32BDC6872CF2C2FA4
:101D800026952695277080E2289F900111248C2F9C
:101D90008370C1E0D0E002C0CC0FDD1F8A95E2F76E
:101DA000C22BD32BDA685DCF8C2F8F710E94BF0FAF
:101DB000C82FD0E0DC2FCC27CC27DF71D06251CFE9
:101DC0008C2F8F710E94BF0F55E0D695C7955A95FD
:101DD000E1F7CF70D0E0DC2FCC27282F30E084FF54
:101DE00005C044E0220F331F4A95E1F7C22BD32BE5
:101DF000D06937CF8D2F8F710E94BF0F182FCE0162
:101E000099270E941D0FC12FD0E0DC2FCC27CC27B3
:101E1000DF71C82BD92BD2CF462F7C3030F46630FF
:101E200020F4672F0E941002089590E080E008954A
:101E30000E940C0F0E94EE0D089582389105B9F1B1
:101E4000B0F48133910509F47DC048F489329105DD
:101E500009F46DC08A32910509F47BC00895853379
:101E6000910509F45FC08933910509F10895833E16
:101E70009105D9F138F4803E910529F1823E910512
:101E800079F10895863E9105D9F1873E910509F4CF
:101E90003EC0843E910541F520919A0221FF24C065
:101EA0008091990284FD19C087EE90E008952091F9
:101EB0009902237009F05AC020919A0223FF14C09E
:101EC00089E290E008952091990220FD38C0309178
:101ED0009A0230FF09C024FF43C090E080E00895DB
:101EE0002091990222FDF7CF08952091990222FDB9
:101EF0003AC030919A0230FD39C024FFF5CFEDCFC2
:101F00002091990223FFF0CF24FDE7CFCDCF209180
:101F1000990223FD2EC030919A0231FFEECF84EE5C
:101F200090E008952091990225FFDECFC9CF20913E
:101F3000990225FD21C020919A0223FFD5CF89E384
:101F400090E0D2CF2091990226FFCECF8AE290E096
:101F500008952091990226FFC7CF81E390E008956C
:101F600083EE90E0089582EE90E0089580EE90E098
:101F7000089586EE90E0089585E390E008959091AD
:101F8000990292FF10C041E0282F2471243009F0FB
:101F900040E031E0282F2871283009F030E0431765
:101FA00011F02CE0822793FF10C041E0282F24710C
:101FB000243109F040E031E0282F2871283109F060
:101FC00030E0431711F02CE0822730919A0230FF65
:101FD00010C051E0282F2171213009F050E041E07C
:101FE000282F2871283009F040E0541711F029E01B
:101FF000822731FF10C041E0282F2171213109F0E3
:1020000040E031E0282F2871283109F030E04317F3
:1020100011F029E0822794FD877E089510929B029B
:1020200010929C0210929D0210929E020895CF92EF
:10203000DF92EF92FF926B017C010E9405128111E9
:102040000EC00E946A1BC61AD70AE80AF90AC09293
:102050009B02D0929C02E0929D02F0929E02FF9021
:10206000EF90DF90CF9008950F931F930E94051279
:10207000882329F00E946A1B1F910F9108950E94E6
:102080006A1B00919B0210919C0220919D0230914D
:102090009E02600F711F821F931FEECF80E0089594
:1020A00008950E945010089508950E9454100895B4
:1020B000E82FF0E0E455FD4F80810895089580EA0F
:1020C0008A95F1F7089500C008950E945F10089561
:1020D00008950E9468100895A6E0B0E0E2E7F0E1FC
:1020E0000C9458240E940512F82E6091B80288239F
:1020F00009F440C086E0E82E8E010F5F1F4FF80103
:102100008E2D11928A95E9F7862F90E0B8018455BB
:102110009D4F0E942B128823B9F080919F0290E07E
:1021200046E050E0B80184559D4F0E94972421E07D
:1021300020934902892B91F4F12C0E9455108F2D88
:102140002696E6E00C947424809149028823A1F33A
:10215000F8011192EA94E9F710924902A0919F02C6
:10216000B0E0A455BD4F86E0F80101900D928A952C
:10217000E1F7E3CF70E064557D4F80919F0290E0DE
:1021800084559D4F0E94B2120E946910D8CFF894D6
:10219000E82FE295EF70F0E031A1282F2F7081E059
:1021A00090E001C0880F2A95EAF7982F9095932325
:1021B00091A392A1892B82A3789408950F931F93E2
:1021C000CF93DF93C4EAD1E089918F3F11F00E9451
:1021D000C71081E0CA3AD807B9F7CEE9D1E004EADE
:1021E00011E089918F3F11F00E94C7100C171D0755
:1021F000C1F7DF91CF911F910F910895B0E0A0E05A
:10220000E4E0F1E10C945624EC01D62E062F10E008
:10221000C8018C559E4F7C01FC0180818F3F09F4E1
:1022200044C0F894E82FE295EF70F0E091A18F7030
:1022300021E030E001C0220F8A95EAF7892F822B36
:1022400081A382A12095282322A378940E94631061
:10225000EEE9F1E031E0C12C21912F3F59F1A22F9D
:10226000A295AF70B0E090968C9190E02F7002C074
:10227000959587952A95E2F780FD1CC0832FC82A83
:10228000330F81E0E43AF80739F7F70180818F3F97
:1022900011F00E94C71061E0C11001C060E08D2DF7
:1022A0000E946510C00FD11FC882CDB7DEB7E8E02D
:1022B0000C94722480E0E3CF8091020180910201AE
:1022C00096E0811190E09093B80286E0891B80939C
:1022D0009F020E94DE108CE0ECEAF2E0DF01982F12
:1022E0001D929A95E9F7E0EAF2E0DF011D928A95E6
:1022F000E9F786E00E94BD110E9451100895ACE0FC
:10230000B0E0E5E8F1E10C9459248E010F5F1F4F16
:102310008CE0F80111928A95E9F7F12C6F2DC80134
:102320000E94FE10F394F6E0FF12F8CF4CE050E06C
:10233000B80180EA92E00E94972421E0009709F416
:1023400020E0892B41F08CE0F801A0EAB2E0019096
:102350000D928A95E1F76091B80270E064557D4F67
:1023600046E080EA92E00E94BE11182F0E946C1095
:10237000812B2C96E5E00C9475240895B0E0A0E044
:10238000E4ECF1E10C9456246C017B01042FC22F84
:10239000222379F081E080934C020E945E1B90938F
:1023A0004B0280934A0280E0CDB7DEB7E8E00C94A0
:1023B0007224D0914C02DD23B1F380914A029091B6
:1023C0004B020E94761B059770F310E0A801B6013E
:1023D000C7010E949724892B31F0A801B601C701DB
:1023E0000E94A424CD2F10924C028C2FDDCFCF93CE
:1023F0000E942524C82F811102C00E9420248C2F06
:10240000CF91089580915002089580914F020895D0
:102410000E94051208950E94F71180934F020E94B6
:102420000812809350020E940212809302010E94BF
:10243000051281110E94611208950E9405128111F6
:1024400002C00E946412089581E0909151029A3076
:1024500008F080E008950F931F93CF93DF93EC0172
:102460008B01809151028A30B8F4B801CE010E94EC
:10247000AF12C82F811122C0809151028F3FB9F451
:102480000E945E1B90934E0280934D028C2FDF9131
:10249000CF911F910F91089580914D0290914E021E
:1024A0000E94761B843F914000F7C0E0EFCF8F5F22
:1024B000809351028A3020F7C1E0E8CF1092510298
:1024C000E5CF0E94391C08950E943C1C0895B0E09D
:1024D000A0E0EDE6F2E10C9457247901C82F880FB3
:1024E000DD0B41155105A9F0FE0193E0EE0FFF1F32
:1024F0009A95E1F7ED5FFE4F818192818E5A9D4F53
:10250000208130E04217530708F49A01A9010E9484
:10251000A424CE010E94251DD82E8823D1F00115B8
:102520001105B9F083E0CC0FDD1F8A95E1F7FE01BC
:10253000ED5FFE4F438150E00417150708F4A80132
:10254000CD5FDE4F6C817D816E5A7D4FC7010E9449
:10255000A4248D2DCDB7DEB7E7E00C9473240E9440
:10256000A11308950E94B8130895A4E0B0E0EBEB26
:10257000F2E10C945A2460916B0270916C0280918C
:102580006D0290916E020E94851B11E06436710508
:102590008105910518F10E9434106E5F7F4F8F4FB7
:1025A0009F4F69837A838B839C8310E000E030E047
:1025B00020E044E050E0BE016F5F7F4F82E00E9468
:1025C0006712182F882351F00E946A1B60936B02D8
:1025D00070936C0280936D0290936E02812F24960B
:1025E000E4E00C947624B0E0A0E0E9EFF2E10C9492
:1025F00054247C015B016A010E94241201E010E076
:10260000882311F00AE010E0C1E0D0E0B501C70175
:10261000F6010995811104C021960C171D072CF4B1
:10262000CDB7DEB7EAE00C947024CC9F9001CD9F2B
:10263000300D300D112490E080E045E34A95F1F72C
:102640000000019682179307C1F7E0CFA7E0B0E042
:10265000ECE2F3E10C9454247B01C090AA01D090E9
:10266000AB0101E010E09E01295F3F4F50E040E0E8
:1026700070E060E080E00E946712182F882309F460
:1026800048C056018FEFA81AB80A6091670270918E
:1026900068028091690290916A020E94851B6436EB
:1026A00071058105910568F106E010E09E012F5F3C
:1026B0003F4F50E040E070E060E081E00E94671230
:1026C000D82E66E070E0C5010E94591511E09F8187
:1026D000981310E01D2141F10E946A1B609367026C
:1026E000709368028093690290936A0286E0FE010B
:1026F0003196A1E6B2E001900D928A95E1F711E0E2
:1027000013C066E070E0C5010E9459159F818913CE
:10271000CBCF86E0F6013196DE01119601900D9245
:102720008A95E1F71111E2CF86E0E1E6F2E0D70108
:1027300001900D928A95E1F7812F2796EAE00C949B
:1027400070240F931F93CF93DF93EC018B0146E22C
:1027500053E10E94F312882331F045EB52E1B801B6
:10276000CE010E94F312DF91CF911F910F91089536
:102770000F931F93CF93DF93C091AA01D091AB0128
:10278000CE01019626E0FB01DC0101900D922A9515
:10279000E1F766E070E00E94591588836F817885C3
:1027A00089859A8500915D0210915E0220915F02F9
:1027B00030916002601771078207930751F06093B0
:1027C0005D0270935E0280935F02909360020E94AC
:1027D0001710DF91CF911F910F9108950E94820DE4
:1027E00008950E94F71A0E94DC1E0E94400D0E946C
:1027F000F61E0E946F0D0E94031F0E94081F0E9478
:10280000EE130E94221F0E944E0DF7CF9093AD0150
:102810008093AC0108958B3109F465C040F58B308D
:1028200071F078F4863009F447C020F4853059F10E
:1028300080E00895873009F448C08830C9F781E006
:102840000895803109F45DC068F48E3089F7909165
:102850004802892F8B7F92FF84608093480282FD1B
:102860004CC0EDCF863159F3893149F3E1CF8A323B
:1028700001F160F48732B1F020F48E31C8F28D514D
:102880004CC08932A9F60E948C02D9CF833440F41F
:102890008A3308F041C0853329F0883381F2C8CFEC
:1028A000833431F681E090E00E9421070E94D40633
:1028B000C6CF0E94F50CC3CF80914802807F8093E1
:1028C000480281E080937202089590914802892F16
:1028D0008E7F90FF81608093480280FDB0CF817F22
:1028E00080934802ACCF90914802892F8D7F91FF51
:1028F00082608093480281FFA2CF8091480281606C
:10290000EFCF90914802892F877F93FF8860809353
:10291000480283FDF2CF93CF895321E030E0A90133
:1029200002C0440F551F8A95E2F7CA01BDCF80E06F
:1029300008950E9497140895CF93C82F8091720232
:102940008130B9F0882331F08230A1F11092720207
:1029500080E00DC00E94610B8232D1F78C2F0E9463
:10296000971481111BC08C2F0E940B148170CF9182
:1029700008950E94610B823289F38C2F0E94991472
:1029800081110AC0C43199F060F4CB3029F0C03114
:1029900069F782E08093720281E0E8CF81E090E005
:1029A000E5CFC93221F0C833B9F380E0DFCF109210
:1029B0007202FBCFC93209F43FC0E8F4C431E1F13F
:1029C00028F4C73009F45BC081E0D1CF82EE8C0FD0
:1029D0008A30D0F7CD51C0937102C33009F446C09C
:1029E000B0F5C13009F43FC080E291E0C230B1F1EE
:1029F00010927102E9CFC03509F452C0B8F48AE0F0
:102A0000CF3411F7E0916F02F09170023097E1F24C
:102A10002081082E000C990B820F911D8F3F91058C
:102A200009F00CF441C08FEF8083CECFC135D1F1D6
:102A300081E0C23539F39BCF80917102882321F266
:102A4000109271021092700210926F02BDCFC530C9
:102A500099F078F08BE191E0C63051F690937002D6
:102A600080936F02B1CF85E792E0F8CF8FE191E0DC
:102A7000F5CF8EE191E0F2CF8CE191E0EFCF1092B3
:102A8000750284E180932001C0931F018CE3809341
:102A90001E0188E080931C0188E280931B0194CF83
:102AA00086EFB0CF8FEFAECF97FFBECF10828CCF27
:102AB0000895FC01680F791F8FEF91E3E617F70780
:102AC00009F408952191822728E030E087FF06C0AD
:102AD000880F892721503109C9F7F0CF880FFACF25
:102AE000CF93DF93EB0186319C4711F50E94610B78
:102AF0009D81992399F08A7A91E009F490E090936E
:102B00007302811109C089E20E94711A0E94F00BC0
:102B100080E0DF91CF91089585E3F6CF8091730235
:102B2000811104C089E20E94791AF0CF85E3FBCFBE
:102B300081E0EFCFCF93DF93EC01FB018581882308
:102B400009F4D2C09E0130572332310508F0B2C0DB
:102B50000E946F0C90939A0280939902FE01E150BB
:102B6000F047E232F10520F4E35FFA4D0C9446247D
:102B70008091990281608093990293C080919A021A
:102B8000886080939A028DC0809199028260F3CF11
:102B9000809199028460EFCF809199028860EBCF99
:102BA00080919A028160EDCF80919A028260E9CF94
:102BB000809199028061DFCF809199028062DBCFA2
:102BC000809199028064D7CF0E94D40680919902A7
:102BD0008068D1CF809199028C60CDCF80919A028C
:102BE0008360CFCF809199028E7FC5CF80919A026A
:102BF000877FC7CF809199028D7FBDCF8091990249
:102C00008B7FB9CF80919902877FB5CF80919A024F
:102C10008E7FB7CF80919A028D7FB3CF809199023A
:102C20008F7EA9CF809199028F7DA5CF8091990247
:102C30008F7BA1CF0E94D406809199028F779BCF82
:102C400080919902837F97CF80919A028C7F99CF50
:102C50008091990282FB992790F921E0922790FBBD
:102C600082F990FB83F987CF80919A02982F9095F3
:102C700091708E7F892B90FB81F983CF909199027F
:102C8000892F8F7B96FF806476CF0E94D406909127
:102C90009902892F97FB87F980586DCF81E00E94B8
:102CA000F80C8091990290919A020E94740C0E94F3
:102CB000D40680E0DF91CF91089580E0F0CF90912D
:102CC0009902892F8F7E94FF806155CF9091990250
:102CD000892F8E7F90FF81604ECF90919A02892F2D
:102CE000877F93FF88604DCF81E0E4CF282F35EBBD
:102CF0002303C001112497FF04C080589109892F34
:102D0000089580589F4FFBCF80917C0280FF0DC0BB
:102D100060911F0170E0660F771F6038710570F5D4
:102D20006115710569F1862F089581FF07C06091D3
:102D30001F0184E0689FB0011124EFCF60911F0153
:102D400082FD0AC080917B028823A9F020911E0198
:102D500060911F01821710F088E0ECCF869FC001C0
:102D6000112433E0880F991F3A95E1F7622F70E044
:102D70000E943224D2CF68E070E0D5CF8FE708956B
:102D800081E0089580917C0280FF0CC060911C015D
:102D900070E075956795759567956115710549F1B1
:102DA000862F089581FF06C060911C0170E0759523
:102DB0006795F3CF60911C0182FD0BC090917A0260
:102DC0009923A1F060911B0180911C01961738F0A6
:102DD000682F70E06038710500F38FE70895899FD0
:102DE000C001112470E00E943224F4CF61E070E051
:102DF000D7CF81E008958D3C31F40E9484168195EF
:102E00008093800208958E3C19F40E948416F8CFB6
:102E10008F3C31F40E948416819580937F0208953F
:102E2000803D19F40E948416F8CF893D29F40E9450
:102E3000C2168093810208958A3D21F40E94C21631
:102E40008195F7CF8B3D31F40E94C2168195809316
:102E5000820208958C3D19F40E94C216F8CF9FE2B9
:102E6000980F983070F4815D990B21E030E001C03B
:102E7000220F8A95EAF780917E02822B80937E0250
:102E800008958D3D31F480917C02816080937C02B5
:102E900008958E3D21F480917C028260F7CF8F3DB2
:102EA000B9F780917C028460F1CF40917F028D3C24
:102EB00059F48091800287FF0DC010928002411169
:102EC0000BC010927B0208C08E3C81F4809180027E
:102ED00018169CF3442381F0809181029091820224
:102EE000892B09F05AC010927A0208958F3C49F458
:102EF00047FFF0CF10927F02809180028111ECCFCA
:102F0000E0CF803D19F41416ACF3E4CF9091810228
:102F1000893D29F41916F4F610928102DBCF8A3D1F
:102F200019F497FFD7CFF8CF909182028B3D29F407
:102F300097FFD0CF10928202CDCF8C3D19F4191695
:102F4000CCF3C8CF9FE2980F983090F4815D990B35
:102F500021E030E0B90102C0660F771F8A95E2F7E1
:102F6000CB01809590917E02892380937E02B2CF1F
:102F70008D3D31F480917C028E7F80937C02AACFBC
:102F80008E3D21F480917C028D7FF7CF8F3D09F03B
:102F9000A1CF80917C028B7FF0CF08950E945E1BB1
:102FA0009C0190917F0280918002982B21F03093B8
:102FB0007902209378029091810280918202982B6D
:102FC00021F030937702209376028DE792E00E9401
:102FD000C919089586E0EDE7F2E0DF011D928A95B8
:102FE000E9F710927B0210927A0210927C02089507
:102FF000FC01828181110EC0838181110BC084810B
:10300000811108C091E08581811101C090E0892F74
:103010008170089581E0FCCFA6E0B0E0E2E1F8E144
:103020000C945B2486E0EDE7F2E0DE01119601905E
:103030000D928A95E1F710927F0210928002109211
:103040008102109282028B819C81892B89F0809170
:103050007802909179020E94761BAC0190917B02DC
:103060009923C9F1809120018417150608F440C006
:103070008D819E81892B91F08091760290917702CB
:103080000E94761BAC0190917A02992309F46AC0E0
:1030900080911D018417150608F472C0BE016F5F90
:1030A0007F4F8DE792E00E948C1A811105C08DE759
:1030B00092E00E94F81781110E94CE1786E0FE016F
:1030C0003196ADE7B2E001900D928A95E1F7269630
:1030D000E3E00C947724209175028AE0289F900108
:1030E00011242417350720F69F5F90937B0202C0BE
:1030F0009F3FD1F71B81112359F00E9484169FEF47
:1031000011160CF491E0899F802D112480937F0289
:103110001C81112359F00E9484169FEF11160CF4A4
:1031200091E0899F802D11248093800280917F02FD
:10313000882309F49DCF10918002112309F498CFC0
:103140000E947616882351F080937F02812F0E947F
:103150007616882329F0809380028ACF81E0F4CF0D
:1031600081E0F9CF209174028AE0289F9001112418
:103170002417350708F092CF9F5F90937A0202C020
:103180009F3FD1F71D81112359F00E94C2169FEF76
:1031900011160CF491E0899F802D112480938102F7
:1031A0001E81112359F00E94C2169FEF11160CF4D4
:1031B00091E0899F802D1124809382028091810269
:1031C000882309F46BCF10918202112309F466CF92
:1031D0000E947616882351F080938102812F0E94ED
:1031E0007616882329F08093820258CF81E0F4CFAD
:1031F00081E0F9CF0F931F93CF93DF93C42FD22F8A
:10320000FC0185818823C9F0409385020E945E1BE2
:10321000909384028093830280E28C0F883040F484
:10322000C77081E001C0880FCA95EAF70E94810447
:10323000DF91CF911F910F91089510918502141382
:1032400032C080918302909184020E94761B883C58
:10325000910548F5C0E2CD0F1D17B9F080E2810F4E
:10326000883040F4177081E001C0880F1A95EAF7A2
:103270000E948804C83048F481E09D2F977001C0F7
:10328000880F9A95EAF70E948104802F0E947804A3
:10329000C83070F6D77081E001C0880FDA95EAF780
:1032A0000E948804C5CF80E28C0F883008F6C77072
:1032B00081E001C0880FCA95EAF7F2CF0F93DB01D6
:1032C00088519C4787309105A0F5FC01E15DFA4DDE
:1032D0000C94462406E221EE41EE6AE17CE7CD0142
:1032E0000E94FA1880E00F91089507E225EE45EE5E
:1032F0006BE17CE7F4CF06E221EE40EE68E17CE78B
:10330000EECF07E225EE44EE69E17CE7E8CF06E286
:1033100021EE42EE6CE17CE7E2CF07E225EE46EEDD
:103320006DE17CE7DCCF08E221E045EE6EE17CE771
:10333000D6CF15968C91882319F010928502D3CFA1
:1033400081E0D1CF90938C0280938B0208950E94EC
:103350000512811103C0809186020895E0918B02CD
:10336000F0918C02309729F00190F081E02D0995C1
:10337000089580E008950E94A7190895E0918B02B6
:10338000F0918C02309721F00280F381E02D0995B5
:103390000895E0918B02F0918C02309739F022E091
:1033A000DC012C930680F781E02D09950895A3E0B8
:1033B000B0E0EDEDF9E10C945C24209189023091AC
:1033C0008A0228173907A1F090938A028093890214
:1033D000E0918B02F0918C02309751F023E0298329
:1033E0009B838A830084F185E02DCE0101960995A7
:1033F0002396E2E00C947824A3E0B0E0E2E0FAE166
:103400000C945C2420918702309188022817390798
:10341000A1F09093880280938702E0918B02F09153
:103420008C02309751F024E029839B838A830084A7
:10343000F185E02DCE01019609952396E2E00C94EA
:10344000782440910001509101019A012E5F3F4F75
:10345000485F5F4F80E02417350709F40895F901AC
:1034600091919F019923B9F38F5FF5CF882371F074
:103470002091000130910101F9013296285F3F4F00
:103480009191981729F0E217F307D1F780E008959A
:1034900081E008959C01FC0132969FEF80E041910C
:1034A000461751F09F3F19F4411101C0982F8F5FCB
:1034B0008630A9F79F3F09F40895290F311D97FD24
:1034C0003A95F90162830895FC013296089621919C
:1034D000261303C0DF0111971C92E817F907B9F70B
:1034E0000895682F80910001909101010E944A1A6D
:1034F0000895682F80910001909101010E94641A43
:103500000895E0910001F0910101329686E0DF011B
:103510001D928A95E9F70895DC01FB0111969C91B3
:1035200011978181981322C012968C91129788234B
:1035300019F0928189131AC013968C9113978823DE
:1035400019F09381891312C015968C9115978823D1
:1035500019F0958189130AC014969C91992321F042
:1035600081E02481291303C080E001C081E08170E3
:10357000089508950E94B91A0895811106C081E046
:1035800080938D020E94BA1A089582E0F9CF83E0F9
:1035900080938D020E94BA1A08950E94BD1A089560
:1035A00081E080938D020E94BA1A08950E94D01A79
:1035B0000895089508950E94DA1A089508950895C7
:1035C0000E94D91A0895CF930E94DE1A0E947F119B
:1035D0000E94DF1AC0E08C2F0E945810811105C094
:1035E000CF5FCC30C1F7CF91089581E0FCCF85B794
:1035F000806885BF85B7806885BF08951F921FB614
:103600001F9211248F939F93AF93BF9380918E024B
:10361000811113C08091B9029091BA02A091BB02AE
:10362000B091BC024196A11DB11D8093B902909347
:10363000BA02A093BB02B093BC02BF91AF919F911D
:103640008F911F901FBE1F9018958091C1028430EA
:1036500031F10E94EE0210928E0288E190E020E4A7
:103660000FB6F894A895809360000FBE2093600079
:1036700083B7817F846083BF83B7816083BF789481
:10368000889583B78E7F83BF0FB6F894A8958091F5
:103690006000886180936000109260000FBE089502
:1036A0000E94D4060E94F302089582E084BD93E054
:1036B00095BD9AEF97BD80936E0008952FB7F8944B
:1036C0008091B9029091BA02A091BB02B091BC0264
:1036D0002FBF08952FB7F8946091B9027091BA0284
:1036E0008091BB029091BC022FBF08959C014FB7FF
:1036F000F8948091B9029091BA02A091BB02B09166
:10370000BC024FBF821B930B0895CF92DF92EF92C2
:10371000FF922FB7F894C090B902D090BA02E0900F
:10372000BB02F090BC022FBFA7019601261B370BEE
:10373000480B590BCA01B901FF90EF90DF90CF9071
:10374000089578941F921FB61F9211248F939F9310
:10375000AF93BF938091B9029091BA02A091BB023E
:10376000B091BC020196A11DB11D8093B902909346
:10377000BA02A093BB02B093BC02BF91AF919F91DC
:103780008F911F901FBE1F90189587E797E7909322
:1037900001088093000888E19AE00FB6F894A89594
:1037A000809360000FBE90936000FFCF88E19AE0A5
:1037B0000FB6F894A895809360000FBE90936000B8
:1037C000FFCF8EE1489B02C08150E1F7489BFECFBE
:1037D0000895589880E28A95F1F7589A0895FC0167
:1037E0003BE03A95F1F798E020E080E031E040E1FD
:1037F0004A95F1F7880F489B02C08160232742E079
:103800004A95F1F7000040E14A95F1F7915079F7B8
:1038100090E19A95F1F799B132E03A95F1F700000D
:1038200040E14A95F1F7917092272081920F9083A1
:103830000895A1E0B0E0EFE1FCE10C945824198276
:103840008C017C01E60EF11C0E151F0541F481E090
:103850009981911180E02196E6E00C9474240E94F5
:10386000E11BCE0101960E94EF1BF80181938F01AD
:10387000EBCF509A589A08955098589AE89AE9E6EA
:10388000F0E080818C7F808308956150770B91E018
:1038900001C0990F6A95EAF720E031E0911108C064
:1038A000222391F0589A80E28A95F1F7589808956A
:1038B000492F482339F0589A232740E24A95F1F7D7
:1038C0009695ECCF5898F9CF5898EDCFFF920F937B
:1038D0001F93CF93DF93EC018C01060F111DC017CE
:1038E000D10729F4CDB7DEB7E5E00C947524F99043
:1038F0000E94E91B68E08F2D0E94451CF0CF1F92AB
:103900000F920FB60F9211240F931F932F933F9393
:103910004F935F936F937F938F939F93AF93BF93D7
:10392000EF93FF93CF93DF930F92CDB7DEB719825A
:103930000E94E11BCE0101960E94EF1B082F069505
:1039400006950695282F22952570902F9570290FA2
:10395000922F937026952695920F982797708981BC
:10396000982B09F05CC0043008F059C080E18A95BA
:10397000F1F7589A509A82E08A95F1F700C058986A
:1039800088E0089F80011124D801AD5FBE4F1696D4
:10399000ED91FC9117973097A9F06091AA01709171
:1039A000AB0114962D913C911597260F371F119658
:1039B0008D919C911297680F791F13964C911397D4
:1039C0008C910995F801ED5FFE4F6381662351F0FC
:1039D0002091AA013091AB0184819581820F931FC0
:1039E0000E94661C0E94E91B80E18A95F1F75898B5
:1039F0005098589A80E18A95F1F7F801ED5FFE4FF3
:103A00006081662351F02091AA013091AB01818140
:103A10009281820F931F0E94191C0E94E11B0F903C
:103A2000DF91CF91FF91EF91BF91AF919F918F91D6
:103A30007F916F915F914F913F912F911F910F91C6
:103A40000F900FBE0F901F9018950F931F93CF9359
:103A5000DF93EC0104970CF04CC0F894509A5898FE
:103A600085E08A95F1F700009C2F969595708C2F34
:103A70008570980F892F83709695969523E0CC0FCB
:103A8000DD1F2A95E1F7980F8E01092B0E94E91B93
:103A900000C068E0802F0E94451C80E18A95F1F704
:103AA0005098589A489B1EC087E090E048991CC0E7
:103AB000FE01ED5FFE4F63816623F9F02091AA01BC
:103AC0003091AB0184819581820F931F0E94191C54
:103AD000811113C0509A589A7894DF91CF911F9119
:103AE0000F91089500C0DECF019729F4509A589A9B
:103AF000789480E0F2CF00C0D9CF0E94E11B80E231
:103B00008A95F1F75898509A80E18A95F1F7CD5F40
:103B1000DE4F6881662351F02091AA013091AB01FC
:103B200089819A81820F931F0E94661C0E94E91B63
:103B3000789481E0D2CF80919702089508959B01F7
:103B4000BA019091C1029430E9F48F708093E9003A
:103B50009FEF8091E800915085FD06C085ED8A9524
:103B6000F1F700009111F5CF8091E80085FF0AC0C0
:103B700050E040E0C9010E94991F8091E8008E77D3
:103B80008093E800089543E050E0BC0182E00E9489
:103B90009F1D089546E050E0BC0182E00E949F1DF9
:103BA0000895CF93DF93EC0148E050E0BC0181E041
:103BB0000E949F1D88E0FE01AFE8B2E001900D92E7
:103BC0008A95E1F7DF91CF9108958091C00281112C
:103BD00009C00E9429210E9486218091E200846010
:103BE0008093E20008951092C00208950E94D01AB6
:103BF00008956091BD0281E0611101C080E00E94E2
:103C0000C71A08959091C10281E0943009F080E0D4
:103C10006091BD020E94CD1A089542E061EC81E0FE
:103C20000E94A52042E261EC82E00E94A5209091D2
:103C3000C10281E0943009F080E06091BD020E94F1
:103C4000BD1A08958091C302833009F461C030F435
:103C50008130D1F1823009F49EC008958A3009F490
:103C60008AC08B3009F46FC0893009F050C0809150
:103C7000C202813209F04BC08091C6029091C70206
:103C8000029708F044C08091E800877F8093E800A5
:103C90008091E80082FF37C09091F3008091F2009C
:103CA000029731F48091F100813011F0863021F4D7
:103CB0008091F100809397028091E8008B77809348
:103CC000E8000E94D92023C08091C202813AF9F411
:103CD0008091E800877F8093E8008091C6029091F0
:103CE000C702892B61F468E08FE892E070E00E94DF
:103CF000E81F8091E8008B778093E800089560E0EA
:103D000090E080E0F3CF8091C1028111C1CF08958E
:103D10008091C202813AD9F78091C6029091C70280
:103D2000892BA9F78091E800877F8093E800809134
:103D3000E80080FFFCCF80912B018093F1008091FF
:103D4000E8008E77BCCF8091C202813201F780916A
:103D5000C6029091C702892BD1F68091E800877F37
:103D60008093E8000E94D9208091C40280932B01A7
:103D70000E94D40608958091C202813241F680915A
:103D8000E800877F8093E8000E94D9208091C502D7
:103D90008093980208958091C202813A09F0B7CFCA
:103DA0008091E800877F8093E8008091E80080FFA1
:103DB000FCCF80919802C1CF84B7877F84BF0FB6B4
:103DC000F894A895809160008861809360001092BB
:103DD00060000FBE80E890E00FB6F8948093610019
:103DE000909361000FBE0E94D61A08950E94292167
:103DF0000E948621E2EEF0E08081846080837894E6
:103E00000E940524089581E291E00E94A21908957C
:103E10008091C102853031F48091C102853019F062
:103E20000E94501B08950E94251B0E94E31A8823BC
:103E300099F38091BF02882379F30E94831F0E9427
:103E4000D406EACF08959A014091C8025091C90260
:103E50000E942B1F0895492F55274330510519F112
:103E600068F44130510509F444C04230510509F469
:103E700045C090E080E050E040E025C0413251056F
:103E800049F142325105A9F784E490E046E653E057
:103E900061157105C1F08BE790E04BEE52E06130A7
:103EA000710589F0E6CF99278130910581F000975F
:103EB00029F00297F1F6ECE5F2E002C0EAE9F2E05F
:103EC000849190E0AF01F901518340830895EAE8BD
:103ED000F2E0F6CF89E090E040EB52E06115710529
:103EE00091F389E090E049EC52E06130710559F3BB
:103EF000C0CF82E190E049ED52E0E5CF8BE390E066
:103F00004EE952E0E0CF80E189BD82E189BD09B48C
:103F100000FEFDCF8091D8008F7D8093D8008091E6
:103F2000E00082608093E0008091E00081FDFCCFA2
:103F30000895AF92BF92CF92DF92FF920F931F939B
:103F4000CF93DF936C01EB018A010E94F820F82ED9
:103F5000811123C00115110539F0F801808191818B
:103F6000C81BD90BC80ED91EB12CA12C2097A9F0C3
:103F70008091E80085FD22C08091E8008E778093D3
:103F8000E80001151105A1F0F80180819181A80ECA
:103F9000B91EB182A08285E0F82E8F2DDF91CF91DE
:103FA0001F910F91FF90DF90CF90BF90AF90089539
:103FB0000E94F8208823D1F2F82EEFCFF6018191EC
:103FC0006F018093F1002197FFEFAF1ABF0ACECFA8
:103FD000FC018091C8029091C90286179707A0F052
:103FE0006115710529F49091E8009E779093E8009F
:103FF00090E06115710551F4911108C08091E800BD
:1040000082FF34C080E00895BC01F2CF8091C102EC
:104010008823C1F18530C1F18091E80083FD30C073
:104020008091E80082FDEACF8091E80080FFE1CF37
:104030008091F3002091F200382F6115710519F07D
:104040002830310558F091E02830310509F090E032
:104050002091E8002E772093E800CBCF81918093C8
:10406000F100615071092F5F3F4FE7CF8091C1028E
:10407000882341F0853041F08091E80083FFBECF76
:1040800081E0089582E0089583E00895FC01809125
:10409000C8029091C90286179707A0F061157105B3
:1040A00029F48091E8008E778093E80090E0611514
:1040B000710551F4911108C08091E80082FF35C06C
:1040C00080E00895BC01F2CF8091C1028823C9F13C
:1040D0008530C9F18091E80083FD31C08091E8000E
:1040E00082FDEACF8091E80080FFE1CF8091F3006C
:1040F0002091F200382F6115710519F02830310533
:1041000058F091E02830310509F090E08091E80006
:104110008E778093E800CBCF84918093F100319625
:10412000615071092F5F3F4FE6CF8091C102882314
:1041300041F0853041F08091E80083FFBDCF81E000
:10414000089582E0089583E00895982F973028F02D
:104150008F708093E90081E008959093E900242F07
:10416000762F50E0981731F07091EC002091ED001F
:104170005091F00021FD02C09F5FE8CF3091EB002D
:104180003E7F3093EB003091ED003D7F3093ED00AA
:104190003091EB0031603093EB007093EC00209392
:1041A000ED005093F0002091EE0027FDE5CF80E078
:1041B00008958091C20287FF13C08091E80082FFBA
:1041C00006C08091E8008B778093E80004C080915E
:1041D000C1028111F2CF08958091C1028823D9F3E1
:1041E0008091E80080FFF8CF8091E8008E77ECCFD7
:1041F0002091E4003091E50095E6A9012091EC00C2
:10420000822F817020FF06C08091E80080FF06C0E9
:1042100080E008952091E80022FD1AC08091C1023B
:10422000882389F0853089F08091EB0085FD0FC0EF
:104230002091E4003091E50042175307F9F29150C4
:10424000E1F684E0089582E0089583E0089581E036
:1042500008950E9498210E94A021E0EEF0E0808164
:1042600081608083E8EDF0E080818F77808319BCE6
:10427000A7EDB0E08C918E7F8C9380818F7E8083C0
:104280001092C00208950F931F93CF93DF930E9463
:1042900098210E94A021C8EDD0E088818F77888383
:1042A00088818068888388818F7D888319BC10927B
:1042B000C1021092BD021092BF021092BE0200EE27
:1042C00010E0F80180818B7F808388818160888302
:1042D00042E060E080E00E94A520E1EEF0E0808115
:1042E0008E7F8083E2EEF0E0808181608083808138
:1042F00088608083F80180818E7F808388818061DF
:104300008883DF91CF911F910F910895E8EDF0E040
:1043100080818F7E8083E7EDF0E080818160808303
:1043200084E082BF81E08093C0020E94432108950F
:10433000E8EDF0E080818E7F80831092E2000895A6
:104340001092DA001092E10008951F920F920FB6BA
:104350000F9211242F933F934F935F936F937F930B
:104360008F939F93AF93BF93EF93FF938091E1005F
:1043700082FF0BC08091E20082FF07C08091E100C4
:104380008B7F8093E1000E9404248091DA0080FFFB
:1043900019C08091D80080FF15C08091DA008E7F0F
:1043A0008093DA008091D90080FF96C080E189BDBA
:1043B00082E189BD09B400FEFDCF81E08093C10296
:1043C0000E94E51D8091E10080FF19C08091E2000C
:1043D00080FF15C08091E2008E7F8093E200809183
:1043E000E20080618093E2008091D8008062809337
:1043F000D80019BC85E08093C1020E94F91D80910C
:10440000E10084FF2BC08091E20084FF27C080E19F
:1044100089BD82E189BD89B5982F917080FFFBCF5E
:104420008091D8008F7D8093D8008091E1008F7EAD
:104430008093E1008091E2008F7E8093E200809182
:10444000E20081608093E2008091BD02882309F43C
:1044500049C084E08093C1020E94021E8091E10065
:1044600083FF29C08091E20083FF25C08091E10095
:10447000877F8093E10082E08093C1021092BD02A9
:104480008091E1008E7F8093E1008091E2008E7F39
:104490008093E2008091E20080618093E20042E03C
:1044A00060E080E00E94A5208091F0008860809309
:1044B000F0000E94F61DFF91EF91BF91AF919F9187
:1044C0008F917F916F915F914F913F912F910F90BD
:1044D0000FBE0F901F90189519BC1092C1020E9438
:1044E000F31D70CF8091E30087FD93E09093C102AC
:1044F000B3CF1F920F920FB60F9211242F933F93B9
:104500004F935F936F937F938F939F93AF93BF93DB
:10451000CF93DF93EF93FF93D091E900DF70809109
:10452000EC00C82FC17080FDC0E81092E9008091B6
:10453000F000877F8093F00078940E94BD22109253
:10454000E9008091F00088608093F000CD2BCF705F
:10455000C093E900FF91EF91DF91CF91BF91AF91AF
:104560009F918F917F916F915F914F913F912F918B
:104570000F900FBE0F901F901895AAE2B0E0E3ECE9
:10458000F2E20C945B2482EC92E02091F100FC01B9
:104590002193CF01F2E08A3C9F07B9F70E94221EC7
:1045A0008091E80083FF1EC18091C2029091C302F6
:1045B0009A3008F017C1E92FF0E0EA5CFA4D0C944C
:1045C0004624803899F0823809F00CC18091C602E7
:1045D0008F70873008F006C18093E9008091EB006E
:1045E00085FB882780F91092E90006C08091BE0201
:1045F0009091BF02911182609091E800977F909313
:10460000E8008093F1001092F1008091E8008E772D
:10461000E5C0882309F4D3C0823009F0E3C080915B
:10462000C4028111D6C08091C6028F702FEF280F6F
:10463000263008F0D7C08093E9002091EB0020FFDE
:10464000C8C0933031F48091EB0080628093EB001E
:10465000C0C09091EB0090619093EB0021E030E0BE
:1046600001C0220F8A95EAF72093EA001092EA002F
:104670008091EB008860EACF8111B4C01091C40230
:104680001F778091E3008078812B8093E3008091F5
:10469000E800877F8093E8000E94D9208091E8009D
:1046A00080FFFCCF8091E30080688093E30082E08C
:1046B000111183E08093C10295C08058823008F0C8
:1046C00091C08091C4029091C5028C3D23E0920775
:1046D000A1F583E08A838AE289834FB7F894DE01EB
:1046E000139620E03EE051E2E32FF0E050935700B4
:1046F000E49120FF03C0E295EF703F5FEF708E2FD3
:1047000090E0EA30C0F0C7968D939D932F5F2431DF
:1047100059F74FBF8091E800877F8093E8006AE2F5
:1047200070E0CE0101960E94E81F8091E8008B772F
:104730008093E80057C0C096E7CF6091C6027091A1
:10474000C702AE014F5F5F4F0E94231FBC01892B40
:1047500009F448C09091E800977F9093E800898120
:104760009A810E944620E1CF8038E1F58091E800EF
:10477000877F8093E8008091BD028093F10045CF50
:10478000811130C09091C402923060F58091E800B0
:10479000877F8093E8009093BD020E94D92080918A
:1047A000BD02882311F084E005C08091E30087FDFD
:1047B000FACF81E08093C1020E940D1E13C0809148
:1047C000C402813079F481E0933009F080E0809375
:1047D000BF021092E9008091E800877F8093E80093
:1047E0000E94D9208091E80083FF0AC08091E800F0
:1047F000877F8093E8008091EB0080628093EB00DC
:10480000AA96E3E00C9477240895CF938091C10297
:104810008823A1F0C091E900CF709091EC00892F1E
:10482000817090FD80E8C82B1092E9008091E8002B
:1048300083FD0E94BD22CF70C093E900CF910895FF
:104840000E9429211092C1020895E8EDF0E08081D4
:10485000806180838AE18A95F1F700C08091D90058
:104860008170089597FB072E16F4009407D077FD0A
:1048700009D00E94832407FC05D03EF490958195D1
:104880009F4F0895709561957F4F0895EE0FFF1F1C
:104890000590F491E02D09942F923F924F925F92F0
:1048A0006F927F928F929F92AF92BF92CF92DF9240
:1048B000EF92FF920F931F93CF93DF93CDB7DEB7A5
:1048C000CA1BDB0B0FB6F894DEBF0FBECDBF099439
:1048D0002A88398848885F846E847D848C849B8490
:1048E000AA84B984C884DF80EE80FD800C811B819E
:1048F000AA81B981CE0FD11D0FB6F894DEBF0FBECD
:10490000CDBFED010895AA1BBB1B51E107C0AA1F33
:10491000BB1FA617B70710F0A61BB70B881F991F60
:104920005A95A9F780959095BC01CD010895FB019A
:10493000DC0104C08D910190801921F44150504058
:10494000C8F7881B990B0895FB01DC0102C0019098
:104950000D9241505040D8F70895F999FECF92BD7D
:1049600081BDF89A992780B50895A8E1B0E042E0AA
:1049700050E00C94F124DC01A40FB51F41505040CD
:1049800048F0CB01840F951F2E910E94CC244150FA
:104990005040D0F70895262FF999FECF92BD81BDE2
:1049A000F89A019700B4021639F01FBA20BD0FB66D
:1049B000F894FA9AF99A0FBE08950396272F0E9449
:1049C000CC240E94CB24252F0E94CC24242F0C948D
:1049D000CC240196272F0E94CC240C94CB24DC01FC
:1049E000CB01FC01F999FECF06C0F2BDE1BDF89AFA
:1049F000319600B40D9241505040B8F70895F894A4
:104A0000FFCFD004D004200520058505A105FF04B3
:104A1000FF04A605170626062606F2156616FA15E1
:104A2000C415C815FE15CC1502160E16D8155F163E
:104A3000DC151216E01516163E16E4151A16451664
:104A4000EA1520162816D0150616D4150A16EE15E6
:104A5000241634164E165D16BE15F6156D167B1906
:104A600081196A19751987198D199319E12209237A
:104A7000F2230923F2233C235D23F223B423C02332
:104A800028020100000001000000000000000601F3
:104A900000000004070000000000002808503C0748
:104AA000149B1DD11D9E1DCA1DC31D01E200E900FE
:104AB000EA00B500B600B700CD008301CC008A0142
:104AC00092019401210223022402250226022702D8
:104AD0002A02B300B4006F0070009F01CB019F0257
:104AE000A002818283E200E900EA00B500B600B7C7
:104AF00000CD008301CC008A0192019401210223A0
:104B00000224022502260227022A02B300B4006F03
:104B10000070009F01CB019F02A0028182839466F6
:0C4B200097C63435F6F7313332365202B6
:00000001FF
