:100000000C9431020C94BE1C0C944E020C944E02C3
:100010000C944E020C944E020C944E020C944E0220
:100020000C944E020C944E020C94DD230C94AF24DD
:100030000C94C81E0C944E020C944E020C944E026A
:100040000C944E020C944E020C944E020C944E02F0
:100050000C944E020C946C1F0C944E020C944E02A5
:100060000C944E020C944E020C944E020C944E02D0
:100070000C944E020C944E020C944E020C944E02C0
:100080000C944E020C944E020C944E020C944E02B0
:100090000C944E020C944E020C944E020C944E02A0
:1000A0000C944E020C944E020C944E020305030570
:1000B0002F052F059705B505CD06CD06C0055906B8
:1000C0006A066A061C2543253B2643253B268F25C9
:1000D000B2253B260926182635001E001F002000E9
:1000E000210022002B001A000F00150005001D0042
:1000F000390016000B00110017003600E10009005E
:100100001000190006003800000000002F00300029
:100110002C002A6800000000E00028002941E200CD
:10012000230024002500260027002A0033001400A5
:10013000180007000D00310037000400080012000D
:100140000C0034000A0013001B000E001C00E50028
:100150002A782C002D002E0000000000E600294126
:100160002800E400000000003A003B003C003D0095
:100170003E003F0000000000000000000000000002
:10018000000000000000000000000000E10000008E
:10019000000000000000000000000000000000005F
:1001A00000002A6800000000E00028000000E200D3
:1001B00040004100420043004400450000000000B0
:1001C00000000000000000005000510052004F00ED
:1001D0000000000000000000000000000000E5003A
:1001E000A800AE00AA00A9000000000010501250A4
:1001F000000000000000000035001E001F0020006D
:10020000210022002B0014001A000800150017001E
:10021000390004001600070009000A00E1001D0073
:100220001B00060019000500000000002F00300030
:100230002C002A6800000000E00028002943E200AA
:10024000230024002500260027002A001C00180097
:100250000C001200130031000B000D000E000F0007
:100260003300340011001000360037003800E5007C
:100270002A782C002D002E0000000000E600294303
:100280002800E400000000003A003B003C003D0074
:100290003E003F00000000000000000000000000E1
:1002A000000000000000000000000000E10000006D
:1002B000000000000000000000000000000000003E
:1002C00000002A6800000000E00028000000E200B2
:1002D000400041004200430044004500000000008F
:1002E00000000000000000005000510052004F00CC
:1002F0000000000000000000000000000000E50019
:10030000A800AE00AA00A900000000001050125082
:1003100000000000000000002C03440061006300A6
:10032000740079006C002D004D0061006E007500B6
:1003300066006F0072006D00200028003500780014
:100340003600290000000E037400730068006F007F
:100350007200740000000403090409023B0002015A
:1003600000A0FA09040000010301010009211101A4
:100370000001224000070581030800010904010073
:100380000103000000092111010001227B00070583
:10039000820320000112010002000000084D4436D3
:1003A0003501000102000105010902A101850209D0
:1003B00001A10005091901290815002501950875F5
:1003C0000181020501093009311581257F950275EA
:1003D00008810609381581257F9501750881060574
:1003E0000C0A38021581257F950175088106C0C069
:1003F00005010980A101850319012AB7001501260D
:10040000B700950175108100C0050C0901A1018597
:100410000419012AA002150126A002950175108178
:1004200000C005010906A101050719E029E715002B
:10043000250195087501810295017508810105075F
:10044000190029FF150026FF009506750881000593
:10045000081901290595057501910295017503910A
:1004600001C011241FBECFEFDAE0DEBFCDBF11E027
:10047000A0E0B1E0E2E1FEE402C005900D92A03AF6
:10048000B107D9F722E0A0EAB1E001C01D92AD3B6F
:10049000B207E1F70E94BC150C9407270C940000EA
:1004A00081E0089581E008950C94520208950C941F
:1004B00056021F93CF93DF9300D000D01F92CDB789
:1004C000DEB749835A836B833091A30189819A8176
:1004D000311114C0662359F0222349F00E940C09FF
:1004E000182F682F89819A810E94B30803C00E9447
:1004F000DF08182F69817A81812F04C00E940C09BE
:1005000069817A810F900F900F900F900F90DF917B
:10051000CF911F910C945F10FC01262F40815181D7
:100520006281738184810C94590281E00895CF9394
:10053000DF93EC0160E00E948C02BE01DF91CF915D
:100540000C9457020C94CC110C94C81108950E947D
:100550005D070E94A6022FEF84E39CE021508040BB
:100560009040E1F700C000000C94921F0F931F937E
:10057000CF93DF938C0161E00E948C02EC01B80103
:100580000E9454028823F1F1B801CE010E94CB1BD6
:100590008823C1F1B801CE010E946A18882391F125
:1005A000B801CE010E94271B882361F1F8018281E6
:1005B000882309F1CB358DE5D807C1F050F4C1157A
:1005C000FCE5DF0781F0CF3DDC45A9F40E946D0E0C
:1005D00019C0CC35EDE5DE0761F0CD35DD4559F4C8
:1005E0000E94B60D08C00E94A7020CC00E94BF0D59
:1005F00002C00E94C20DC801DF91CF911F910F91DF
:100600000C94500280E0DF91CF911F910F910895DB
:100610000E94AB1E0C9421030E9424030C94B11E73
:1006200008950C94100381E008950C941303089529
:10063000CF93C82F0E9411038C2F0E941503CF91D6
:10064000089580E00C9418030E94E91D0C9418038F
:100650000E94E91D9091A201891721F08093A201C7
:100660000C9418030895CF93DF93CDB7DEB72B9783
:100670000FB6F894DEBF0FBECDBF4F835887698792
:100680007A878B8761110E94020D9E012F5F3F4F79
:1006900086E0F90111928A95E9F785E0FE01379627
:1006A000D90101900D928A95E1F789819A814C8157
:1006B0005D81452B31F09F3F31F491E08F3F19F47C
:1006C00003C091E001C090E090FF09C049815A81C8
:1006D0006B817C818D819E810E94230C05C0C901A4
:1006E0000E9495028111F2CF2B960FB6F894DEBFCF
:1006F0000FBECDBFDF91CF910895FC018081918124
:100700000E944E090895CF93882309F4A9C0C82FE9
:100710008238C1F40E94E91D81FDA2C069E3809185
:100720000201909103010E94831E0E94240D2FEF6D
:1007300081EE94E0215080409040E1F700C000003D
:1007400069E319C0833801F50E94E91D80FD88C066
:1007500063E580910201909103010E94831E0E9433
:10076000240D2FEF81EE94E0215080409040E1F77E
:1007700000C0000063E580910201909103010E9496
:10078000851ECF910C94240D8438C1F40E94E91D7C
:1007900082FD66C067E480910201909103010E948E
:1007A000831E0E94240D2FEF81EE94E021508040A3
:1007B0009040E1F700C0000067E4DDCF8CEF8C0FC4
:1007C000813AF8F48C2F0E94DE1A811149C06C2FF7
:1007D00080910201909103010E944D1E882349F0EF
:1007E0006C2F80910201909103010E94851E0E944E
:1007F000240D6C2F80910201909103010E94831EB1
:10080000C0CF80E28C0F883048F4C77081E001C00F
:10081000880FCA95EAF70E94E50CB3CFEBE5EC0F21
:10082000E33040F4F0E0E25AFE4F808190E0CF9157
:100830000C94151EE8E5EC0FE73150F4F0E0EE0FF4
:10084000FF1FE05DFE4F80819181CF910C942B1EA4
:10085000CD3E30F08C2F0E944116CF910C9413178F
:10086000CF910895882309F464C0823879F40E94F6
:10087000E91D81FF5EC069E380910201909103014F
:100880000E94831E0E94240D69E310C08338B1F4D6
:100890000E94E91D80FF4DC063E5809102019091A7
:1008A00003010E94831E0E94240D63E580910201D2
:1008B000909103010E94851E0C94240D843879F4D4
:1008C0000E94E91D82FF35C067E48091020190918A
:1008D00003010E94831E0E94240D67E4E7CF9CEF72
:1008E000980F913A10F4682FE1CF90E2980F98306A
:1008F00050F4877091E001C0990F8A95EAF7892F2B
:100900000E94EB0CD9CF9BE5980F933020F480E048
:1009100090E00C94151E98E5980F973120F480E034
:1009200090E00C942B1E8D3E20F00E949C160C949F
:10093000131708951F93CF93DF93182FEB010E9495
:100940008303209741F08FE99FE00197F1F700C002
:1009500000002197F6CF812FDF91CF911F910C944A
:100960003204893319F060E070E002C060E570E0A5
:100970000C949A04882321F00E94E50C0C94240D19
:100980000895882321F00E94EB0C0C94240D089507
:10099000CF92DF92EF92FF920F931F93CF93DF934B
:1009A0007C01D62FC72FFC011281058102950F70A3
:1009B0000E94DB0C8823B9F01123A9F08C2F807FD3
:1009C000803421F080E28D0F883068F080919102B0
:1009D00082FD09C082E00E94840D0E94DB0C91E040
:1009E000D82ED92601C0D12CCC2EC2948FE0C8229B
:1009F0008C2D90E08C30910508F0CFC1FC01EA5AB3
:100A0000FF4F0C9495268C2F807FCF70882311F098
:100A1000C295C07F112399F0CC2309F4AAC180E2CA
:100A20008D0F883010F0D11104C08C2F0E94E50C7E
:100A300003C08C2F0E94F50C0E94240D9AC18D2FAB
:100A40000E943204CC2309F4A8C180E28D0F8830C3
:100A500038F1DD2329F18C2F0E94FB0C24C08C2F50
:100A6000807FCF70803211F0C295C07FDD2319F0F6
:100A7000D130A1F13DC08091910282FF17C01123B6
:100A800049F0CC2329F08C2F0E94E50C0E94240D04
:100A900080E070C180E00E943204CC2309F47DC163
:100AA0008C2F0E94EB0C0E94240D77C1112371F052
:100AB000002341F0013031F40E94050D8C2B0E947F
:100AC0000D0D6BC10E94050D8C2B1DC0002319F06C
:100AD000013009F462C10E941A0D25C0112321F0D2
:100AE000063008F05AC10EC0053008F056C11BC0D0
:100AF000112361F0002331F0F701858180FF39C1B6
:100B00008F7085838C2F0E94BA0447C1002359F04F
:100B1000D93309F03FC1FFEF07EE13E0F150004079
:100B20001040E1F735C18C2F0E94C10436C18C2FD3
:100B300086958695837019F0813061F02EC111235E
:100B400021F08D2F9C2F937002C080E090E00E94D6
:100B5000151E2BC1112321F08D2F9C2F937002C0E5
:100B600080E090E00E942B1E20C18D2F112319F0F0
:100B70000E94411602C00E949C160E94131715C1C4
:100B80008C2F837009F047C011110BC12D2F2295B6
:100B900026952770220F220F6D2F6F70862F90E001
:100BA000A0E0B0E0022E04C0880F991FAA1FBB1F4F
:100BB0000A94D2F7D4FF10C04FE050E060E070E03C
:100BC00004C0440F551F661F771F2A95D2F7409522
:100BD00050956095709503C040E050E0BA01C6950D
:100BE000C695C3708A019B01082B192B2A2B3B2B1E
:100BF000C901B801C23049F058F4C13019F00E945F
:100C0000C907CFC00E94B707CCC00E94DB07C9C08C
:100C10000E94B507C6C0112319F08C2F817001C046
:100C20008695882309F4BDC02D2F2295269527701F
:100C3000220F220F6D2F6F70862F90E0A0E0B0E0A2
:100C4000022E04C0880F991FAA1FBB1F0A94D2F757
:100C5000D4FF10C04FE050E060E070E004C0440FEB
:100C6000551F661F771F2A95D2F7409550956095BE
:100C7000709503C040E050E0BA01C695C695C370B8
:100C80008A019B01082B192B2A2B3B2BC901B80188
:100C9000C23049F058F4C13019F00E948E0881C06A
:100CA0000E947C087EC00E94A0087BC00E94EF07C3
:100CB00078C0CF70112339F08C2F0E9415088D2F2A
:100CC0000E94BA046EC08D2F0E94C1048C2F0E9416
:100CD000360867C0D23F21F128F4D03F41F0D13F20
:100CE000C1F043C0D33F19F1D43F79F03EC0112386
:100CF00041F0053008F051C08C2F8F710E945B08C5
:100D00004CC0063008F049C0F7CF8091910282FFB5
:100D100018C0112339F08C2F8F710E9415083DC027
:100D20001123C9F38C2F8F710E94360836C011230E
:100D300029F08C2F8F710E9400082FC00E94FB07A2
:100D40002CC0112349F0CF718C2F0E94150863E04D
:100D50008C2F0E94690D21C081E00E94840D023019
:100D6000E0F082E00E94840D18C0112331F00023CE
:100D700091F28D2F0E94830310C0002399F2D93382
:100D800049F41FEF27EE33E0115020403040E1F7E7
:100D900000C000008D2F0E94320488EF8C0D84303B
:100DA00020F40E94E91D0E941803DD20C9F00E9472
:100DB000D70C80FD15C0F70112820E94D10C0E9451
:100DC0001508C7010E9411070E94D10CDF91CF9135
:100DD0001F910F91FF90EF90DF90CF900C94360809
:100DE000DF91CF911F910F91FF90EF90DF90CF9007
:100DF00008950F931F93CF93DF93EC01688179815E
:100E00008A810E9459098C010E94B2080E94A3079E
:100E1000B801CE010E94C804DF91CF911F910F91BC
:100E20000895CF93DF93EC01988189812B813C81D8
:100E3000232B31F08F3F31F481E09F3F19F403C041
:100E400081E001C080E080FD1DC0CE010E94B6029D
:100E5000811110C00E94DB0C8823A1F08A818823B5
:100E600089F08091910282FD0DC082E0DF91CF91E7
:100E70000C94840DCE010E94F906CE01DF91CF9132
:100E80000C949702DF91CF91089580E090E00E944A
:100E9000151E80E090E00E942B1E0E94020D0E9411
:100EA000240D0E9444180C94131780910201909114
:100EB00003010E94871E0C9445070E94F20C0C94BB
:100EC000550792959F70963079F010F4925001C0BA
:100ED0009A50923068F4803F69F018F4883E40F4EC
:100EE00009C0843F29F406C0883E20F0813F11F0FC
:100EF00080E0089581E00895FC01808191810E9445
:100F00004E090E9461070895CF93DF9300D000D06F
:100F10001F92CDB7DEB70F900F900F900F900F90EC
:100F2000DF91CF910895CF93DF9300D000D000D010
:100F3000CDB7DEB726960FB6F894DEBF0FBECDBF95
:100F4000DF91CF910895089508950C94A4070C940F
:100F5000A5070E94A7076093D5017093D6018093DF
:100F6000D7019093D8010C9445070C94A9070F93CF
:100F70001F930091D5011091D6012091D701309196
:100F8000D801602B712B822B932B1F910F910C9406
:100F9000A9070F931F930091D5011091D6012091BD
:100FA000D7013091D80160237123822393231F91AD
:100FB0000F910C94A9070F931F930091D5011091E5
:100FC000D6012091D7013091D8016027712782275F
:100FD00093271F910F910C94A9070C94A4070E94CA
:100FE000ED076093D1017093D2018093D301909368
:100FF000D4010C94450760E070E0CB010C94EF073E
:101000000F931F9341E050E060E070E08A019B0184
:1010100004C0000F111F221F331F8A95D2F7C90188
:10102000B8011F910F910C94EF070F931F9341E0AC
:1010300050E060E070E004C0440F551F661F771F4A
:101040008A95D2F78091D1019091D201A091D301DC
:10105000B091D4018A019B01082B192B2A2B3B2B21
:10106000C901B8011F910F910C94EF070F931F93C3
:1010700041E050E060E070E004C0440F551F661F7F
:10108000771F8A95D2F7409550956095709580911D
:10109000D1019091D201A091D301B091D4018A01E4
:1010A0009B01082319232A233B23C901B8011F915F
:1010B0000F910C94EF070F931F9341E050E060E015
:1010C00070E004C0440F551F661F771F8A95D2F742
:1010D0008091D1019091D201A091D301B091D4011E
:1010E0008A019B01082719272A273B27C901B80134
:1010F0001F910F910C94EF070F931F930091D10153
:101100001091D2012091D3013091D401602B712B29
:10111000822B932B1F910F910C94EF070F931F932A
:101120000091D1011091D2012091D3013091D401CD
:1011300060237123822393231F910F910C94EF0757
:101140000F931F930091D1011091D2012091D301EF
:101150003091D40160277127822793271F910F9127
:101160000C94EF070895292F220F920F990F890FE2
:10117000E82FE695E695E695877051E001C0550F9A
:101180008A95EAF785E0E89FF0011124EC55FE4FBF
:1011900020E030E070E04081CB01022E02C0969545
:1011A00087950A94E2F781708195842785238427A7
:1011B00081932F5F3F4F2530310569F70895292F1F
:1011C000220F920F990F890F682F66956695669585
:1011D000982F977085E0689FB001112440E050E09F
:1011E00080E0FB01E40FF51FEC55FE4F208130E05D
:1011F000092E02C0369527950A94E2F7217033270D
:10120000042E01C0220F0A94EAF7822B4F5F5F4F32
:101210004530510531F70895BF92CF92DF92EF929A
:10122000FF920F931F93CF93DF938C01C090D10156
:10123000D090D201E090D301F090D4018091D501FB
:101240009091D601A091D701B091D801C82AD92A8E
:10125000EA2AFB2ACFE1D0E0D701C6010C2E04C058
:10126000B695A795979587950A94D2F780FD04C007
:10127000219790F7B12C07C0BC2EB8018C2F0E948B
:1012800072100197A9F38B2DDF91CF911F910F91D0
:10129000FF90EF90DF90CF90BF900895CF93DF93B2
:1012A000EC010E940C09BE010E947210DF91CF91E7
:1012B00008951F93CF93DF93EB019091A30199239E
:1012C00021F0CB010E944E0913C0882349F0CB01C5
:1012D0000E940C09182F682FCE010E94B30804C089
:1012E000CB010E94DF08182FBE01812F0E947210CF
:1012F000DF91CF911F9108951F93CF93DF93C091FA
:10130000D90116E08091DA01C81799F0D0E01C9F4E
:10131000F0011D9FF00D1124E552FE4F40815181D7
:1013200062817381848195810E9493072196C770A1
:10133000E9CFDF91CF911F91089540910B02509119
:101340000C0260910D0270910E0280910F0290913B
:1013500010020C9493072091D9019091DA0156E084
:101360002917A9F030E0529FF001539FF00D11248E
:10137000E552FE4F7181761306C07081781303C069
:101380007281741306C02F5F3F4F2770E9CF80E052
:10139000089581E00895EF92FF920F931F93CF93EA
:1013A000DF938091100282958F7009F065C0809163
:1013B0000D02882309F460C08091D901F090DA0110
:1013C00010910B0200910C0260910E0270910F02BD
:1013D00091E01F3F09F090E0C0910001D091010120
:1013E000292F96E0E92E8F1509F446C06115710585
:1013F00021F00F3F21F030E003C031E001C0322F77
:1014000090E030FD36C0E89EF001E99EF00D112419
:10141000DF01A552BE4F11963C911197301329C0A0
:101420003C91311326C012963C911297311121C084
:1014300013964D915C911497461B570B4C175D0703
:10144000C0F4809110028F70806180931002E0528E
:10145000FE4F80818F70806180838BE092E00E94DC
:101460001107DF91CF911F910F91FF90EF900C9496
:101470007C0901968770B7CFDF91CF911F910F91B3
:10148000FF90EF9008958F929F92AF92BF92CF926C
:10149000DF92EF92FF920F931F93CF93DF93CDB71D
:1014A000DEB761970FB6F894DEBF0FBECDBF8C01DB
:1014B00085E0F801DE011D9601900D928A95E1F715
:1014C000D8011296EC9090910B0220910C02409161
:1014D0000E0250910F024115510531F02F3F31F4AA
:1014E00081E09F3F19F403C081E001C080E080FDEE
:1014F0007CC1F801C080D180838094808BE0A82ECD
:1015000082E0B82EF0900D02B401641B750B40917F
:10151000000150910101FF2009F411C180911002D6
:10152000382F307F6417750708F0CBC031118AC09F
:10153000D21214C0C91212C0FE2CE1100FC08F705D
:101540008061809310020E949D09C5010E941107CD
:1015500080911002D80115968C9361C18114910479
:1015600039F0BFEFDB1206C081E0CB1203C003C02D
:1015700081E001C080E080FD03C081E08E2502C0D3
:1015800080E090E080FF10C04E2D6D2D8C2D0E94CC
:10159000AB09882349F08BE092E00E941107EBE051
:1015A000F2E086E0DF019DC0892839F0BFEFDB1251
:1015B00006C081E0CB1203C003C081E001C080E01F
:1015C00080FD03C081E08E2502C080E090E0E82F1E
:1015D000E170BE2E80FF2CC04E2D6D2D8C2D0E94F3
:1015E000AB09F82E811124C0CD86DE868D859E85BF
:1015F0000E944E09292F22952F70223018F0243096
:1016000090F405C09F7059F0811109C008C19F7006
:1016100031F0D80115969C91907F09F400C1805E4D
:10162000883008F4FCC0C8010E941107FB2CF7C0E9
:10163000FE2CEE2009F4F3C08091100281608093AB
:10164000100254C0D21206C0C91204C0E11002C078
:10165000F80199C0C8010E947C07882361F1EE203F
:1016600051F120911002822F82958F7090E00297A5
:1016700074F080910B0290910C0298878F831986E9
:101680009B868A862C87CE0107960E94110786E0EA
:10169000F801ABE0B2E001900D928A95E1F70E946B
:1016A000CB090E949D090AC0D21611F1C8010E94FF
:1016B0007C0781112CC0C8010E941107FF24F394FC
:1016C000AEC03111F1CF782D998A888AA6016E2D8E
:1016D00089890E9484078BE092E00E94110786E0CE
:1016E000D5011D928A95E9F70E949D09F12C97C0BA
:1016F000C912DCCFE110DACFF8018583C8010E945E
:10170000110786E0D5011D928A95E9F788C0EE2081
:1017100091F220911002822F82958F7090E00297B3
:101720000CF4B5CF80910B0290910C029A838983BF
:101730001B829D828C822E83CE010196A6CF6417D8
:10174000750708F044C0FE2CEE2009F4B4CFD21285
:1017500030C0C9122EC02091100220FD21C0822F5E
:1017600082958F70482F50E041155105C9F0F8015E
:1017700025834F30510541F08F5F982F9295907FD0
:10178000822F8F70892B8583C8010E94110786E004
:10179000F801ABE0B2E001900D928A95E1F73DC00F
:1017A00086E0F801ABE0B2E001900D928A95E1F796
:1017B00036C0C8010E947C07811169CF8091100258
:1017C000816080931002C8010E94110728C0782D03
:1017D000998A888AA6016E2D89890E94840786E0ED
:1017E000D5011D928A95E9F718C0EE2009F463CF60
:1017F000C8010E947C07F82E882309F45CCF86E09C
:10180000F801ABE0B2E001900D928A95E1F78BE030
:1018100092E00E947D030E94CB090E949D098F2DBA
:1018200061960FB6F894DEBF0FBECDBFDF91CF91AA
:101830001F910F91FF90EF90DF90CF90BF90AF90EE
:101840009F908F9008951F93CF93DF93CDB7DEB70E
:101850002C970FB6F894DEBF0FBECDBF4F835887CD
:1018600069877A878B879C87CE0107960E94430AF7
:101870008823D1F09F8188852A853B85232B31F0F1
:101880008F3F31F481E09F3F19F403C081E001C034
:1018900080E080FD47C04F81588569857A858B85BA
:1018A0009C850E9493073EC086E0FE013796DE01CC
:1018B000119601900D928A95E1F7FF81E8856A857E
:1018C0007B856115710531F0EF3F31F481E0FF3F19
:1018D00019F403C081E001C080E080FD23C02091A5
:1018E000DA0130E0C9010196877099274091D9014A
:1018F00050E084179507F1F1F983EA837D836C83C7
:1019000096E0929FD001939FB00D1124A552BE4F37
:10191000FE01319601900D929A95E1F78093DA01DC
:101920000E947C0916E08091D9019091DA01891713
:1019300071F1189FC001112485529E4F0E94430AE5
:10194000882329F1E091D9011E9FF0011124E5526D
:10195000FE4F4081518162817381848195810E9413
:1019600093078091D90190E0019687709927809321
:10197000D901D9CF0E945D071092DA011092D901E6
:10198000EBE0F2E086E0DF011D928A95E9F72C9604
:101990000FB6F894DEBF0FBECDBFDF91CF911F9180
:1019A0000895809119028595859585950895809172
:1019B00019028770089590911902977081E009F4D7
:1019C00080E0089580912402089590912402892B4B
:1019D0008093240208958095909124028923809316
:1019E0002402089510922402089590912302892BD5
:1019F00080932302089580959091230289238093F8
:101A00002302089510922302089580911A020895E6
:101A100008950C94080D0C94090D9091910292FD7B
:101A200008C090911A02981721F080931A020C9422
:101A30000B0D089580911A02882329F010921A0242
:101A400080E00C940B0D0895CF93DF93E091020199
:101A5000F0910301809124028083E0910201F091D2
:101A60000301908180912302892B808380911A0247
:101A7000882381F0E0910201F09103019081892B8C
:101A8000808380910201909103010E94411E811187
:101A90000E941A0DC0910201D091030148E050E06C
:101AA00061E172E0CE010E94AF26892B69F088E0E7
:101AB000FE01A1E1B2E001900D928A95E1F7CE011D
:101AC000DF91CF910C94FC1DDF91CF9108950C9480
:101AD000080D9091910292FD10C098E0899F9001AD
:101AE0001124262B209319020E94150880911902B7
:101AF0008595859585950C94670D0C941508109225
:101B0000190280E00C94670D2091190280958223C0
:101B100080931902982F977099F430E0482F082E7F
:101B2000000C550B2417350759F09091910292FD46
:101B300007C08595859585950E9436080C947F0D84
:101B400008959091910292FB222720F9281769F0BD
:101B500080FB92F990939102809190029091910272
:101B60000E94E90D82E00C94840D08958091910209
:101B700082FB882780F991E089270C94A10D81E0F0
:101B80000C94A10D80E00C94A10D80E090E00E94E7
:101B9000CD2621E0893E9E4F09F020E0822F089556
:101BA00082E090E00C94C52683E090E00C94C5267A
:101BB000CF9384E090E00E94C526C82F82E290E097
:101BC0000E94C5262C2F30E0A901582BCA01CF91C5
:101BD0000895CF93C92F682F84E090E00E94D32608
:101BE0006C2F82E290E0CF910C94D326AB01BC0124
:101BF0008FE090E00C94E526AB01BC0183E190E01E
:101C00000C94E52660E070E0CB010C94FC0D60E0E4
:101C100070E0CB010E94F60D0C94020E69EE7EEF8F
:101C200080E090E00E94F12660E082E090E00E9477
:101C3000D32660E083E090E00E94D3261092D50185
:101C40001092D6011092D7011092D80160E084E082
:101C500090E00E94D32660E082E290E00E94D326CA
:101C600060E085E090E00E94D32660E086E090E0AE
:101C70000E94D3266FEF87E090E00E94D32640E0D9
:101C800050E0BA0188E090E00E94E52660E08DE037
:101C900090E00E94D32640E050E0BA0188E190E055
:101CA0000E94E52660E087E190E00E94D32640E0B4
:101CB00050E0BA018CE190E00E94E52660E070E01F
:101CC00080E290E00E94F12640E050E0BA0188E115
:101CD00090E00E94E5260C94070E0C940E0E682FDF
:101CE0008EE090E00C94D3260E94351F609335025D
:101CF00070933602809337029093380260933102DA
:101D0000709332028093330290933402089585B722
:101D1000806885BF85B7806885BF08950C9481135E
:101D200008950C94900E0C94900E0C94930E0C94B9
:101D3000900E0C94970E0C94900E0E94870E8FE8D4
:101D400091E10E94DF1D0E949B0E0C94990E0E944F
:101D5000910E0C94900E0E9492110C9417030E9405
:101D6000201F0E944E110E949B130E94D2120E94BB
:101D7000AB0E0E9452180E94A5130C94950E8F92E0
:101D80009F92AF92BF92CF92DF92EF92FF920F930A
:101D90001F93CF93DF93CDB7DEB72A970FB6F89492
:101DA000DEBF0FBECDBF0E94F612982E81110E9499
:101DB000740E85E2A82E82E0B82E00E010E0802E9E
:101DC000802F0E94B611D82EF501C1905F01C82660
:101DD000B1F40F5F1F4F0C30110589F78FEF898326
:101DE0008A831B820E94291F8160782F9D838C83A8
:101DF00049815A816B818D810E9433032FC080916C
:101E0000390281FD0E94BC11E12CFF24F3948C2D3A
:101E10008F21F1F00E948E0E882399F0EE828F823E
:101E2000DF2081E009F480E088870E94291F81601B
:101E3000782F9A8789874E815F8168858A850E947D
:101E40003303F801EB5DFD4F8081F826F08206C078
:101E5000E394FF0CF6E0EF12DACFBBCF81E09110F4
:101E600001C080E02A960FB6F894DEBF0FBECDBF4A
:101E7000DF91CF911F910F91FF90EF90DF90CF9066
:101E8000BF90AF909F908F9008950E94BF0E0E94C8
:101E900081130E9431170C942803CF93DF930E9483
:101EA0007710EC01811521E5920708F045C08115F6
:101EB00030E5930708F094C0883E910528F5803EF0
:101EC000910508F0F8C0883A910570F4853A9105BB
:101ED00008F07CC08130910509F475C008F4E8C0B1
:101EE000049708F0E8C0E4C08F3B910508F0E0C01B
:101EF000C85AD0E0CC0FDD1FCF59DE4F0990D881F2
:101F0000C02DCE019464D8C0811540E2940758F4E6
:101F1000811551E0950708F0CEC08D3E910508F47B
:101F2000C7C09065C9C0C11580E4D80708F4C0C017
:101F3000DF70CE01906AC0C0811525E59207A8F434
:101F4000811534E5930708F095C0811543E59407A2
:101F500008F07BC0811552E5950708F061C0D82FC5
:101F6000CC27CE01816F906AA7C0C11589E5D8073B
:101F7000A0F4C11528E5D20708F082C0C11536E5E6
:101F8000D30708F095C08C2F0E940B118F7190E041
:101F9000D82FCC27CE0190628FC0C1154AE5D40757
:101FA00008F474C0CE0190568115904208F080C0AC
:101FB0008D2F8F710E940B11DD27D0628F71AE01C2
:101FC000582BCA0179C081E090E076C0C55AD0E0B4
:101FD000C157DE4F8881C82FD0E0CE0190646CC01D
:101FE00074E0969587957A95E1F7282F23703C2F1A
:101FF000337081E090E002C0880F991F3A95E2F7B4
:102000009C68AC01522B9A019C2F9F7096959695D7
:1020100050E2959FE0011124C9018C2B9D2B4CC0EF
:102020008370992721E030E002C0220F331F8A9588
:10203000E2F79C2F9695969580E2989FE0011124F7
:10204000C22BD32BCE019C6837C08370992721E027
:1020500030E002C0220F331F8A95E2F79C2F96953D
:10206000969540E2949FE0011124C22BD32BCE0120
:102070009A6822C0D82FCC27CE01846F906A1CC0EA
:10208000DC2FCC27CE01806F906A16C08C2F8F700A
:102090000E940B1194E0D695C7959A95E1F7CF7001
:1020A000D0E0DC2FCC27D0699E01282BC90104C0C9
:1020B00080E090E001C0CE01DF91CF91089528E447
:1020C000829FC0011124FC0126E0729FE00DF11DEA
:1020D0001124E60FF11DEE0FFF1FE852FF4F85910F
:1020E000949108950E945F100E944D0F08958238C8
:1020F000910569F1B0F48133910509F46DC048F49C
:102100008932910509F463C08A32910509F469C0E6
:1021100008958533910509F455C089339105B9F0C7
:102120000895833E910569F138F4803E9105B1F040
:10213000823E910509F10895863E9105A9F1873EF9
:102140009105B9F1843E910509F064C023C0209146
:10215000900220FD4FC021FD4DC008958091900256
:1021600080FD44C08091910280FF44C08091900224
:1021700084FD42C083EE4DC08091900282FF38C042
:10218000F5CF8091900282FD33C08091910280FD55
:1021900031C0ECCF8091910281FF32C080919002DA
:1021A00084FD2AC087EE35C08091900283FF26C04F
:1021B000F5CF8091900283FD21C08091910281FD35
:1021C0001FC0ECCF8091900285FD1CC01DC0809186
:1021D000900285FD19C016C08091900286FD16C040
:1021E00017C08091900286FD13C010C089E311C012
:1021F00082EE0FC080EE0DC080E00BC086EE09C0FD
:1022000084EE07C089E205C085E303C08AE201C00D
:1022100081E390E008959091900292FF0DC0282FE5
:102220002871283019F4877F846006C0282F247114
:10223000243011F48B7F886093FF0DC0282F287104
:10224000283119F4877E846106C0282F2471243137
:1022500011F48B7E88612091910220FF0DC0382FF0
:102260003871383019F4877F816006C0382F31719A
:10227000313011F48E7F886021FF0DC0282F287126
:10228000283119F4877E816106C0282F2171213100
:1022900011F48E7E886194FD877E089510928C02E1
:1022A00010928D0210928E0210928F020895CF929A
:1022B000DF92EF92FF926B017C010E9481138111EA
:1022C0000EC00E94351FC61AD70AE80AF90AC09242
:1022D0008C02D0928D02E0928E02F0928F02FF90DB
:1022E000EF90DF90CF9008950F931F930E9481137A
:1022F000882321F01F910F910C94351F0E94351FE8
:1023000000918C0210918D0220918E0230918F02EB
:10231000600F711F821F931F1F910F91089580E01E
:10232000089508950E94C50D811102C00E946D0E8E
:102330000E94D00D809339020E94D80D9093910293
:10234000809390020E9491110E94D40D682F70E03A
:1023500080E090E00E94B5076091D1017091D201B8
:102360008091D3019091D4010C94ED07E82FF0E017
:10237000E156FD4F80810895089580EA8A95F1F72E
:10238000089500C008950C94BD1108950C94C511D2
:102390000C94C6110C94C5110C94CA110C94C5115F
:1023A000FF920F931F93CF93DF9300D000D000D004
:1023B000CDB7DEB70E9481136091AB028823E9F1AB
:1023C00086E0F82E8E010F5F1F4FF8018F2D1192BE
:1023D0008A95E9F7862F90E0B80181569D4F0E94BB
:1023E000B313882389F08091920290E046E050E098
:1023F000B80181569D4F0E94AF2621E020933A02FA
:10240000892B61F410E016C080913A028823D1F341
:10241000F8011192FA94E9F710923A02A09192020F
:10242000B0E0A156BD4F86E0F80101900D928A956B
:10243000E1F711E00E94A4020DC070E061567D4FEB
:102440008091920290E081569D4F0E943D140E941F
:10245000CE1110E0812F26960FB6F894DEBF0FBE86
:10246000CDBFDF91CF911F910F91FF900895F89408
:10247000E82FE295EF70F0E031A1282F2F7081E076
:1024800090E001C0880F2A95EAF7982F9095932342
:1024900091A392A1892B82A3789408950F931F93FF
:1024A000CF93DF93C8E9D1E089918F3F11F00E946B
:1024B000371281E0CE39D807B9F7C2E9D1E008E98F
:1024C00011E089918F3F11F00E9437120C171D0700
:1024D000C1F7DF91CF911F910F910895CF92DF92B5
:1024E000EF92FF920F931F93CF93DF938C01C62F30
:1024F000D0E0CE0188569E4F7C01FC0190819F3F29
:1025000009F447C0D62EF894E92FE295EF70F0E079
:1025100081A19F7021E030E001C0220F9A95EAF777
:10252000822B81A382A12095282322A378940E9444
:10253000C111E2E9F1E048E951E031E0C12C21911B
:102540002F3F89F0A22FA295AF70B0E090968C91AA
:1025500090E02F7002C0959587952A95E2F780FD4F
:1025600002C0832F01C080E0C82A330F4E175F07D7
:1025700031F7F70180818F3F11F00E94371261E03F
:10258000C11001C060E08D2D0E94C311C00FD11F8A
:10259000C882DF91CF911F910F91FF90EF90DF9054
:1025A000CF9008958091040180910401811102C0AF
:1025B00096E001C090E09093AB0286E0891B809387
:1025C00092020E944E128CE0EFE9F2E0DF01982FB8
:1025D0001D929A95E9F7E3E9F2E0DF011D928A95F1
:1025E000E9F786E00E944A130C94A202EF92FF9250
:1025F0000F931F93CF93DF93CDB7DEB72C970FB612
:10260000F894DEBF0FBECDBF8E010F5F1F4F8CE071
:10261000F80111928A95E9F7F12C6F2DC8010E94FB
:102620006E12F394F6E0FF12F8CF4CE050E0B801E0
:1026300083E992E00E94AF267C0121E0892B09F416
:1026400020E0E114F10441F08CE0F801A3E9B2E0EC
:1026500001900D928A95E1F76091AB0270E06156AE
:102660007D4F46E083E992E00E944B13EF2819F476
:102670000E94D01102C081E090E02C960FB6F89431
:10268000DEBF0FBECDBFDF91CF911F910F91FF90A5
:10269000EF9008950895FF920F931F93CF93DF93C8
:1026A0008C01F62ED72FC42F222349F081E080938E
:1026B0003D020E94291F90933C0280933B0280912F
:1026C0003D028823C1F080913B0290913C020E9420
:1026D000411F059780F0EF2DFD2FD8014C2F50E0C2
:1026E000CD01801B910B841795071CF48D9181936C
:1026F000F7CF10923D02DF91CF911F910F91FF9084
:1027000008958091400281110DC00E9474268111AC
:1027100002C082E001C081E080934002823011F467
:102720000E946F2681E090914002913009F080E094
:1027300008950C9481130E949913809304010E94C0
:10274000811381110C94EB1308950E948113811160
:1027500002C00C94ED13089581E0909141029A30EB
:1027600008F080E008950F931F93CF93DF93EC015F
:102770008B01809141028A3038F4B801CE010E9469
:102780003B1481111DC00AC080913E0290913F020E
:102790000E94411F843F914080F715C08091410203
:1027A0008F3F19F08F5F80934102809141028A3000
:1027B00060F00E94291F90933F0280933E0203C065
:1027C0001092410202C080E001C081E0DF91CF9110
:1027D0001F910F9108950C94781C0C947B1CDF9230
:1027E000EF92FF920F931F93CF93DF937901C82F3E
:1027F000880FDD0B41155105A9F0FE0193E0EE0FA6
:10280000FF1F9A95E1F7EB5FFE4F818192818E5B0E
:102810009D4F208130E04217530708F49A01A90127
:102820000E94BC26CE010E94641DD82E8823D1F0C0
:1028300001151105B9F083E0CC0FDD1F8A95E1F792
:10284000FE01EB5FFE4F438150E00417150708F4CB
:10285000A801CB5FDE4F6C817D816E5B7D4FC70130
:102860000E94BC268D2DDF91CF911F910F91FF907B
:10287000EF90DF9008950C945A150C9476150F93F1
:102880001F93CF93DF9300D000D0CDB7DEB7609118
:102890005B0270915C0280915D0290915E020E94E9
:1028A000501F643671058105910528F10E9474114D
:1028B000DC01CB010296A11DB11D89839A83AB83F4
:1028C000BC8300E010E020E030E044E050E0BE01D6
:1028D0006F5F7F4F82E00E94EF13182F882361F013
:1028E0000E94351F60935B0270935C0280935D02CF
:1028F00090935E0201C011E0812F0F900F900F9016
:102900000F90DF91CF911F910F910895AF92BF92D9
:10291000CF92DF92EF92FF920F931F93CF93DF93AB
:102920007C015B016A010E94AC13811103C001E0CC
:1029300010E002C00AE010E0C1E0D0E0F894B50178
:10294000C701F60109957894811115C021960C17DD
:102950001D0794F0CC9F9001CD9F300D300D1124B8
:1029600080E090E045E34A95F1F700000196821778
:102970009307C1F7E3CF81E0DF91CF911F910F91D2
:10298000FF90EF90DF90CF90BF90AF900895AF92FF
:10299000BF92CF92DF92EF92FF920F931F93CF934C
:1029A000DF93CDB7DEB727970FB6F894DEBF0FBE23
:1029B000CDBF7B01C0909E01D0909F0101E010E04F
:1029C0009E01295F3F4F40E050E060E070E080E012
:1029D0000E94EF13182F882309F43EC056018FEF91
:1029E000A81AB80A60915702709158028091590252
:1029F00090915A020E94501F64367105810591051D
:102A000018F106E010E09E012F5F3F4F40E050E0DC
:102A100060E070E081E00E94EF13182F66E070E044
:102A2000C5010E94531891E02F81281390E01923CB
:102A300039F10E94351F60935702709358028093BA
:102A4000590290935A0211C066E070E0C5010E94DD
:102A500053189F818913D5CF86E0F6013196DE01A8
:102A6000119601900D928A95E1F7112349F086E0C5
:102A7000FE013196A1E5B2E001900D928A95E1F751
:102A800086E0E1E5F2E0D70101900D928A95E1F749
:102A9000812F27960FB6F894DEBF0FBECDBFDF9112
:102AA000CF911F910F91FF90EF90DF90CF90BF904B
:102AB000AF9008950F931F93CF93DF93EC018B0199
:102AC00047EC54E10E948614882351F04FE354E10F
:102AD000B801CE01DF91CF911F910F910C94861414
:102AE00080E0DF91CF911F910F9108950F931F9375
:102AF000CF93DF93F894C0919E01D0919F01CE01B6
:102B0000019626E0FB01DC0101900D922A95E1F788
:102B100066E070E00E94531888837894F8946F817F
:102B2000788589859A8500914D0210914E022091F9
:102B30004F0230915002601771078207930751F0DE
:102B400060934D0270934E0280934F029093500217
:102B50000E9457117894DF91CF911F910F910895A2
:102B60000E9435210E94AF0E0C9441210E94452104
:102B70000E94450F0C945F210E94C71E0E941C21D9
:102B80000E949D0E0E94B0150E94B6150E94A70ECD
:102B9000FBCF8091670280FF06C06091210170E049
:102BA000660F771F26C081FF04C06091210184E079
:102BB00005C082FF07C06091210188E0689FB001D5
:102BC000112417C0909166029923D1F060912001E1
:102BD000961788F72091210188E0289F9001112401
:102BE000929FA001939F500D112470E0CA010E9492
:102BF00081266038710540F46115710519F406C02D
:102C000068E070E0862F08958FE7089581E00895C9
:102C10008091670280FF08C060911E0170E0759589
:102C200067957595679521C081FF06C060911E016B
:102C300070E07595679519C082FF04C060911E0110
:102C400070E010C090916502992399F060911D0188
:102C50009617A0F780911E01899FC001112470E092
:102C60000E9481266038710540F46115710519F4E0
:102C700006C061E070E0862F08958FE7089581E037
:102C800008958D3E21F40E94C915819504C08E3EA1
:102C900029F40E94C91580936B0208958F3E21F498
:102CA0000E94C915819504C0803F29F40E94C9156E
:102CB00080936A020895893F19F40E94081605C09E
:102CC0008A3F31F40E940816819580936C02089522
:102CD0008B3F21F40E940816819504C08C3F29F493
:102CE0000E94081680936D0208959FE0980F983017
:102CF00078F421E030E0A90102C0440F551F9A95F5
:102D0000E2F7CA0190916902892B809369020895C4
:102D10008D3F21F48091670281600BC08E3F21F4CA
:102D200080916702826005C08F3F29F4809167021D
:102D300084608093670208958D3E39F490916B0210
:102D400097FF35C010926B0259C08E3E29F49091C6
:102D50006B021916BCF32BC090916A028F3E29F4C6
:102D600097FF25C010926A0249C0803F19F41916D6
:102D7000CCF31DC090916C02893F29F41916BCF464
:102D800010926C023BC08A3F19F497FF10C0F8CF35
:102D90008B3F39F490916D0297FF09C010926D023C
:102DA0002DC08C3F21F490916D021916BCF39FE069
:102DB000980F983080F421E030E0A90102C0440F60
:102DC000551F9A95E2F7CA0180959091690289236F
:102DD0008093690213C08D3F21F4809167028E7F3A
:102DE0000BC08E3F21F4809167028D7F05C08F3F1D
:102DF00029F4809167028B7F8093670280916A0239
:102E0000811106C080916B02811102C0109266028E
:102E100080916C02811106C080916D02811102C007
:102E20001092650208950E94291F20916A022111C3
:102E300004C020916B02222321F0909364028093BE
:102E4000630220916C02211104C020916D022223A3
:102E500021F0909362028093610288E692E00C94E4
:102E6000071EEF92FF920F931F93CF93DF9300D033
:102E700000D000D0CDB7DEB786E0E8E6F2E0DE01B4
:102E8000119601900D928A95E1F7E0906A02F09018
:102E90006B0200916C0210916D0210926A02109206
:102EA0006B0210926C0210926D02E11003C0FF20C1
:102EB00009F45DC080916302909164020E94411FF9
:102EC000AC0190916602992339F02091220130E003
:102ED0002417350758F04BC0209160028AE0289FE4
:102EE000900111242417350718F041C09F3F19F0B5
:102EF0009F5F90936602EE2061F00E94C9151E1438
:102F000014F09FEF01C091E0989F902D11249093B1
:102F10006A02FF2061F00E94C9151F1414F09FEF90
:102F200001C091E0989F902D112490936B023091F5
:102F30006A023323E1F020916B022223C1F045EBBA
:102F40003403C0011124992319F090936A0203C03D
:102F500081E080936A0235EB2303C0011124992399
:102F600019F090936B0203C081E080936B02011112
:102F700003C0112309F45DC0809161029091620247
:102F80000E94411FAC0190916502992339F0209174
:102F90001F0130E02417350758F04BC020915F0225
:102FA0008AE0289F900111242417350718F041C0AA
:102FB0009F3F19F09F5F90936502002361F00E948C
:102FC0000816101614F09FEF01C091E0989F902D05
:102FD000112490936C02112361F00E9408161116BF
:102FE00014F09FEF01C091E0989F902D11249093D1
:102FF0006D0230916C023323E1F020916D022223A7
:10300000C1F045EB3403C0011124992319F09093CA
:103010006C0203C081E080936C0235EB2303C00196
:103020001124992319F090936D0203C081E08093DD
:103030006D0280916A0281110BC080916B02811137
:1030400007C080916C02811103C080916D028111D3
:103050000E941317EB82FC820D831E8386E0FE0123
:103060003196A8E6B2E001900D928A95E1F7269696
:103070000FB6F894DEBF0FBECDBFDF91CF911F9189
:103080000F91FF90EF900895E8E6F2E086E0DF010F
:103090001D928A95E9F710926602109265021092CD
:1030A000670208950895FC01680F791F8FEF91E37F
:1030B000E617F70771F02191822728E030E087FFBB
:1030C00003C0880F892701C0880F21503109B9F743
:1030D000EFCF0895CF93DF93EC01FB01828188232A
:1030E00009F43CC1C430FDE5DF0760F4CB3F9CE54B
:1030F000D90788F49E0122503C452431310508F05F
:103100002EC109C0C236EDE5DE0729F0C63AFDE55D
:10311000DF0709F024C10E94D80D9093910280939B
:103120009002C1318CE5D80709F4C6C008F042C04E
:10313000C930ECE5DE0709F49BC000F5C5308CE52D
:10314000D80709F485C078F4C330ECE5DE0709F44C
:1031500078C008F07AC0C230DC4509F0F5C0809133
:1031600090028160EFC0C7309CE5D90709F478C0B0
:1031700008F07AC0809190028061E4C0CD30FCE517
:10318000DF0709F487C058F4CB309CE5D90709F470
:1031900079C008F07BC08091900288606FC0CF300A
:1031A000FCE5DF0709F480C008F082C0809190023E
:1031B000877FC8C0CE3F9CE5D90709F471C000F5F0
:1031C000C531FCE5DF0709F485C068F4C3319CE52F
:1031D000D90709F475C008F095C00E945D07809179
:1031E00090028F77AFC0CC3FFCE5DF07A9F108F074
:1031F00054C0CB3FDC4509F0A7C08091910240C08C
:10320000C230EDE5DE0709F489C058F4C1158DE53B
:10321000D80709F45AC008F069C080919102826011
:103220002FC0C236EDE5DE0709F47CC0C63AFDE5E5
:10323000DF0709F481C0C330DD4509F085C080E0B7
:103240006EC08091900282607DC08091900216C015
:1032500080919002886076C08091910282604FC018
:103260008091900280626EC08091900280646AC0FA
:103270000E945D0780919002806864C0846062C093
:1032800081603DC0809190028E7F5CC080919002F1
:103290008D7F58C08091900216C08091910218C015
:1032A000809191028D7F2BC0809190028F7E4AC0C9
:1032B000809190028F7D46C0809190028F7B42C0AA
:1032C00080919002877F8B7F3DC0809191028D7F9E
:1032D0008E7F15C08091900282FB222720F991E019
:1032E000922790FB82F990FB83F92CC08091910288
:1032F000982F909591708E7F892B90FB81F9809308
:10330000910222C00E945D078091900287FB2227D4
:1033100020F991E0922790FB87F914C081E00E9488
:103320006F0E12C08091900284FB222720F991E059
:10333000922790FB84F906C080919002982F909577
:1033400090FB80F98093900280919002909191027D
:103350000E94E90D0E945D0780E001C081E0DF91DD
:10336000CF910895893279F1E0F4843161F1A0F4CC
:10337000873009F075C01092600294E190932201A9
:10338000809321018CE38093200188E080931E01CB
:1033900088E280931D0164C092EE980F9A30F0F09D
:1033A0005FC0803509F444C028F48F3409F058C058
:1033B0008AE03FC0813529F0823509F051C081E0B3
:1033C00038C08FEF36C080917002882379F1109257
:1033D000700210926F0210926E0242C08D51809363
:1033E0007002833099F038F4813069F08230D9F47A
:1033F00082E291E00DC0853099F078F0863099F442
:103400008DE191E005C080E692E002C081E291E0AA
:1034100090936F0280936E0223C080E291E0F8CF18
:103420008EE191E0F5CF109270021AC080E008950D
:1034300086EFE0916E02F0916F02309789F0208163
:10344000082E000C990B820F911D8F3F910519F0EA
:1034500014F08FEF04C097FF02C0108201C0808378
:1034600081E008950F931F9341E050E060E070E029
:103470008A019B0104C0000F111F221F331F8A9570
:10348000D2F7C901B8010E94B5071F910F910C94A2
:103490005D078B3109F468C058F58B3009F486C09C
:1034A00078F4863009F445C020F4853009F44BC027
:1034B0007FC0873009F44AC0883009F477C078C0EB
:1034C000803109F464C068F48E3009F071C08091D5
:1034D000390282FB222720F991E0922790FB82F9A2
:1034E0004CC0863109F462C0893109F45FC060C004
:1034F0008A32E1F060F4873209F455C028F48E3145
:1035000008F456C08D5150C08932E9F051C083345F
:1035100050F48A3308F045C0853309F444C0883339
:1035200009F444C045C08334F1F142C00E946D0EDD
:103530003DC080913902817F8E7F8093390281E086
:103540008093710208950E94A70230C080913902D1
:10355000982F9095917090FB80F98093390291118A
:1035600025C0897F877F10C08091390281FB222787
:1035700020F991E0922790FB81F9809339029923F9
:10358000A9F0809139028160809339020FC0809147
:10359000390283FB222720F991E0922790FB83F9DF
:1035A000ECCF895301C080E00E94321A81E0089577
:1035B00080E0089580E008950C94DA1ACF93C82F24
:1035C00080917102813069F038F08230C1F58C2F22
:1035D0000E94B21981E039C00E94E20C823289F562
:1035E00004C00E94E20C823261F48C2F0E94DC1A2B
:1035F000811104C08C2F0E94491A1FC081E090E005
:103600001CC08C2F0E94DA1A811116C0C43189F0B7
:1036100058F4CB3089F0C031B1F482E0809371026C
:1036200088E30E94B21908C0C93219F0C83321F0EA
:103630000AC01092710207C081E0817006C010922A
:10364000710280E002C080E0F8CFCF910895CF935F
:10365000DF9386319C4541F5EB010E94E20C982FE7
:103660008A812091020130910301882379F09A7AAE
:1036700081E009F480E080937202911102C069E256
:1036800001C065E3C9010E94831E0AC080917202D5
:10369000811102C069E201C065E3C9010E94851E73
:1036A0000E94240D80E001C081E0DF91CF91089558
:1036B0000F931F93CF93DF93C42FD22FFC018281EE
:1036C0008823C9F0409375020E94291F90937402C9
:1036D0008093730280E28C0F883008F057C0C77067
:1036E00081E001C0880FCA95EAF7DF91CF911F9161
:1036F0000F910C94BA0480917502481330C08091E8
:103700007302909174020E94411F883C910538F524
:1037100010E21D0FCD17B9F080E28C0F883040F415
:10372000C77081E001C0880FCA95EAF70E94C10402
:10373000183028F581E09D2F977001C0880F9A9569
:10374000EAF70E94BA04802F0E94B1041830F0F406
:10375000D77081E001C0880FDA95EAF70AC080E2ED
:103760008C0F883098F4C77081E001C0880FCA952B
:10377000EAF7DF91CF911F910F910C94C104802F34
:10378000DF91CF911F910F910C94B104DF91CF91F4
:103790001F910F9108950F939C01CB01243F4CE59D
:1037A000340731F188F4293DFCE53F07D9F02A3D83
:1037B0004CE5340779F1283D3C45A9F506E221EEB8
:1037C00041EE68ED7CE52BC0263FFCE53F07E1F0CC
:1037D000A8F0273F3C4539F507E225EE46EE67EFB6
:1037E0007CE51DC007E225EE45EE69ED7CE517C0DE
:1037F00006E221EE40EE64EF7CE511C007E225EE23
:1038000044EE65EF7CE50BC006E221EE42EE66EF8A
:103810007CE505C008E221E045EE6AED7CE50E940A
:10382000581B80E008C0FC018281882319F01092A7
:10383000750201C081E00F9108958EE1489B02C09E
:103840008150E1F7489BFECF0895589880E28A9511
:10385000F1F7589A0895FC012AE02A95F1F728E03B
:1038600090E080E031E040E14A95F1F7880F489B15
:1038700002C08160932700C0000040E14A95F1F743
:10388000215089F720E12A95F1F729B100C0000005
:1038900030E13A95F1F7217092272081920F9083C1
:1038A0000895EF92FF920F931F93CF93DF931F9290
:1038B000CDB7DEB719828C017C01E60EF11C0E1526
:1038C0001F0551F00E941D1CCE0101960E942B1C69
:1038D000F80181938F01F3CF81E09981911180E00C
:1038E0000F90DF91CF911F910F91FF90EF9008956E
:1038F000509A589A08955098589AE89AE9E6F0E054
:1039000080818C7F80830895615091E001C0990F80
:103910006A95EAF720E031E0992361F0492F4823C6
:1039200019F0589A232701C0589840E24A95F1F7B8
:103930009695F2CF222311F0589A01C0589880E250
:103940008A95F1F758980895FF920F931F93CF939C
:10395000DF93EC018C01060F111DC017D10741F058
:10396000F9900E94251C68E08F2D0E94841CF5CFE1
:10397000DF91CF911F910F91FF9008951F920F92A9
:103980000FB60F9211240F931F932F933F934F93D2
:103990005F936F937F938F939F93AF93BF93EF93B7
:1039A000FF93CF93DF931F92CDB7DEB719820E94AA
:1039B0001D1CCE0101960E942B1C082F0695069512
:1039C0000695902F96959570202F2570920F292F90
:1039D000237096959695920F877089135FC08981A1
:1039E00081115CC0043008F059C080E18A95F1F77C
:1039F000589A509A82E08A95F1F700C0589888E06A
:103A0000089F80011124D801AB5FBE4F1696ED913F
:103A1000FC9117973097A9F060919E0170919F01DA
:103A200014962D913C911597260F371F11968D9165
:103A30009C911297680F791F13964C9113978C9154
:103A40000995F801EB5FFE4F6381662351F0809189
:103A50009E0190919F0124813581820F931F0E94C6
:103A6000A41C0E94251C80E18A95F1F75898509873
:103A7000589A80E18A95F1F7F801EB5FFE4F60817B
:103A8000662351F080919E0190919F0121813281A6
:103A9000820F931F0E94511C0E941D1C0F90DF91EA
:103AA000CF91FF91EF91BF91AF919F918F917F91B6
:103AB0006F915F914F913F912F911F910F910F90B7
:103AC0000FBE0F901F9018950F931F93CF93DF9306
:103AD000843091050CF06DC0EC01F894509A589820
:103AE00085E08A95F1F700009C2F969595702C2F14
:103AF0002570920F892F83709695969523E0CC0FB1
:103B0000DD1F2A95E1F7980F8E01092B0E94251CD5
:103B100084E08A95F1F700C068E0802F0E94841C41
:103B200080E18A95F1F75098589A489902C000C0F0
:103B3000FCCF87E090E0489B08C0019721F4509AA1
:103B4000589A789436C000C0F6CFFE01EB5FFE4F66
:103B50006381662381F080919E0190919F01248171
:103B60003581820F931F0E94511C811104C0509A0D
:103B7000589A78941FC00E941D1C80E28A95F1F724
:103B80005898509A80E18A95F1F7CB5FDE4F6881B3
:103B9000662351F080919E0190919F0129813A8185
:103BA000820F931F0E94A41C0E94251C789481E020
:103BB00001C080E0DF91CF911F910F910895909304
:103BC000A1018093A001089590937C0280937B02D1
:103BD00008950E948113811103C080917602089597
:103BE000E0917B02F0917C02309721F00190F0810E
:103BF000E02D099480E00895E0917B02F0917C0231
:103C0000309721F00280F381E02D09940895E0912E
:103C10007B02F0917C02309739F022E0DC012C939A
:103C20000480F581E02D0994089520917902309166
:103C30007A022817390771F090937A0280937902FB
:103C4000E0917B02F0917C02309721F00680F781B1
:103C5000E02D099408952091770230917802281779
:103C6000390771F09093780280937702E0917B029C
:103C7000F0917C02309721F00084F185E02D0994C9
:103C80000895FC01329697E080E0915029F021914F
:103C90002223D9F38F5FF9CF0895662349F0FC0101
:103CA000329608962191621729F0E817F907D1F7A3
:103CB00080E0089581E008959C01FC0132969FEF19
:103CC00080E04191461789F09F3F19F4411101C0EE
:103CD000982F8F5F8630A9F79F3F39F0F901E90FE0
:103CE000F11D97FDFA956283089508959C012A5F5E
:103CF0003F4FFC014281461301C012820196821798
:103D00009307B9F708950C945C1E0C94761E0296E6
:103D100026E0FC0111922A95E9F7089508950C9484
:103D20008E1E83E080937D020C948F1E811102C051
:103D300081E001C082E080937D020C948F1E0C9480
:103D4000961E81E080937D020C948F1E0C94A11E20
:103D500008950C94A81E0C94A91E0C94A81E0C94F3
:103D6000A81E0C94A81ECF930E94AF1E0E94F612AC
:103D70000E94AD1EC0E08C2F0E94B611811104C0BC
:103D8000CF5FCC30C1F701C081E0CF910895089595
:103D90001F920F920FB60F9211248F939F93AF93A0
:103DA000BF9380917E02811113C08091AC029091EB
:103DB000AD02A091AE02B091AF024196A11DB11D1E
:103DC0008093AC029093AD02A093AE02B093AF0289
:103DD000BF91AF919F918F910F900FBE0F901F9049
:103DE00018958091B402843031F10E94080310923A
:103DF0007E0220E488E190E00FB6F894A8958093C5
:103E000060000FBE2093600083B7817F846083BF12
:103E100083B7816083BF7894889583B78E7F83BF93
:103E20000FB6F894A8958091600088618093600037
:103E3000109260000FBE08950E945D070C940C0361
:103E400082E084BD93E095BD9AEF97BD80936E00AC
:103E500008952FB7F8948091AC029091AD02A09193
:103E6000AE02B091AF022FBF08952FB7F8946091C2
:103E7000AC027091AD028091AE029091AF022FBF63
:103E800008959C014FB7F8948091AC029091AD02D7
:103E9000A091AE02B091AF024FBF821B930B089569
:103EA000CF92DF92EF92FF922FB7F894C090AC02BE
:103EB000D090AD02E090AE02F090AF022FBFA7010C
:103EC0009601261B370B480B590BCA01B901FF900D
:103ED000EF90DF90CF90089578941F920F920FB6D5
:103EE0000F9211248F939F93AF93BF938091AC0255
:103EF0009091AD02A091AE02B091AF020196A11DCA
:103F0000B11D8093AC029093AD02A093AE02B0932A
:103F1000AF02BF91AF919F918F910F900FBE0F9005
:103F20001F90189587E797E7909301088093000802
:103F30009AE088E10FB6F894A895809360000FBED0
:103F400090936000FFCF80918A020895089522E047
:103F50002093E9002FEF3091E800215035FD06C095
:103F600035ED3A95F1F700002111F5CF2091E800E9
:103F700025FF0BC040E050E066E070E00E94D121D8
:103F80008091E8008E778093E8000895CF93DF93C7
:103F900021E02093E9002FEF3091E800215035FD1A
:103FA00006C035ED3A95F1F700002111F5CF2091CB
:103FB000E80025FF14C0EC0140E050E068E070E04C
:103FC0000E94D1218091E8008E778093E80088E0FC
:103FD000FE01A2E8B2E001900D928A95E1F7DF912F
:103FE000CF91089580937F02709381026093800245
:103FF0008091B402843001F582E08093E9008FEF74
:104000009091E800815095FD06C095ED9A95F1F7E5
:1040100000008111F5CF8091E80085FF0DC040E0E0
:1040200050E063E070E08FE792E00E94D121809140
:10403000E8008E778093E8000895BC0184E00C943A
:10404000F21FBC0183E00C94F21F8091B302811136
:1040500009C00E9462230E94BF238091E200846015
:104060008093E20008951092B30208950C94A61E66
:104070006091B00281E0611101C080E00C94911E5A
:104080009091B40281E0943009F080E06091B00238
:104090000C94961E42E061EC81E00E94DB2242E239
:1040A00061EC82E00E94DB229091B40281E09430C6
:1040B00009F080E06091B0020C949F1E8091B602DE
:1040C000833009F461C030F4813071F0823009F43A
:1040D0009AC008958A3009F486C08B3009F46CC008
:1040E000893009F0A8C020C08091B502813A09F05A
:1040F000A2C08091E800877F8093E8008091B90298
:104100009091BA02892B21F468E082E892E003C022
:1041100060E080E090E070E00E941C228091E80066
:104120008B778093E80008958091B502813209F081
:1041300082C08091B9029091BA02029708F07BC0C8
:104140008091E800877F8093E8008091E80082FDFD
:1041500005C08091B4028111F8CF6DC02091F300A9
:104160008091F20090E0922B029731F48091F1005F
:10417000813011F0863021F48091F10080938A0221
:104180008091E8008B7753C08091B502813A09F0A5
:1041900052C08091B9029091BA02892B09F04BC0AC
:1041A0008091E800877F8093E8008091E80080FF9D
:1041B000FCCF80912F0136C08091B5028132D9F5B4
:1041C0008091B9029091BA02892BA9F58091E800FB
:1041D000877F8093E8000E9410238091B70280932C
:1041E0002F010C945D078091B502813221F58091F9
:1041F000E800877F8093E8000E9410238091B80236
:1042000080938B0208958091B502813AA1F4809148
:10421000E800877F8093E8008091E80080FFFCCF72
:1042200080918B028093F1008091E8008E778093DB
:10423000E8000C941023089584B7877F84BF0FB6DD
:10424000F894A89580916000886180936000109236
:1042500060000FBE90E080E80FB6F8948093610094
:10426000909361000FBE0C94A11E0E9462230E94D5
:10427000BF23E2EEF0E080818460808378940C9428
:10428000542683E291E00C94E41D8091B4028530C1
:10429000A9F48091B402853079F40E94F11E8091D6
:1042A000B2028823B1F30E94B31E882391F30E94C7
:1042B000BB210E945D07EDCF0C941C1F089508954B
:1042C0000C946221292F332723303105C9F060F483
:1042D0002130310581F02230310509F044C08BE3F3
:1042E00090E02AE533E043C021323105E1F022328B
:1042F000310549F138C082E190E025E933E037C06B
:1043000099278130910549F028F0029761F5E8E19D
:10431000F3E005C0E6E5F3E002C0E6E4F3E08491F3
:1043200090E09F0124C06115710541F06130710575
:10433000D1F489E090E025E833E019C089E090E00D
:104340002CE633E014C06115710541F06130710550
:1043500051F48BE790E027EA33E009C080E490E075
:1043600022E234E004C080E090E020E030E0FA0196
:1043700031832083089580E189BD82E189BD09B43C
:1043800000FEFDCF8091D8008F7D8093D800809172
:10439000E00082608093E0008091E00081FDFCCF2E
:1043A0000895CF92DF92EF92FF920F931F93CF93D6
:1043B000DF93EC018B017A010E942F23811133C01E
:1043C000E114F10439F0F70180819181081B190B88
:1043D000C80FD91FC12CD12C0115110519F18091DD
:1043E000E80085FD16C08091E8008E778093E80094
:1043F000E114F10449F0F70180819181C80ED91EC2
:10440000D182C08285E00FC00E942F23882321F330
:104410000AC089918093F10001501109FFEFCF1A72
:10442000DF0ADACF80E0DF91CF911F910F91FF90EB
:10443000EF90DF90CF9008952091BB023091BC02A5
:104440002617370748F06115710539F42091E80007
:104450002E772093E80001C0B901FC0120E061152E
:10446000710579F18091B4028823F1F18530F1F181
:104470008091E80083FD3CC08091E80082FD2EC061
:104480008091E80080FFEBCF2091F3008091F20053
:1044900090E0922B6115710551F08830910538F448
:1044A00021912093F100615071090196F3CF21E031
:1044B000089709F020E08091E8008E778093E8006B
:1044C000CECF2111CFCF0AC08091B402882361F0F2
:1044D000853061F08091E80083FD0AC08091E8009A
:1044E00082FFF2CF80E0089582E0089583E008958E
:1044F00081E008952091BB023091BC022617370756
:1045000048F06115710539F42091E8002E77209369
:10451000E80001C0B901FC0120E06115710591F1CD
:104520008091B402882309F440C0853009F43FC06B
:104530008091E80083FD3DC08091E80082FD2FC09E
:104540008091E80080FFE9CF2091F3008091F20094
:1045500090E0922B6115710559F08830910540F477
:1045600024912093F1003196615071090196F2CFA8
:1045700021E0089709F020E08091E8008E77809391
:10458000E800CBCF2111CCCF0AC08091B4028823A0
:1045900061F0853061F08091E80083FD0AC0809170
:1045A000E80082FFF2CF80E0089582E0089583E082
:1045B000089581E00895982F973068F59093E90069
:1045C000981739F07091EC002091ED005091F000B7
:1045D00003C0242F762F50E021FD02C09F5FECCF57
:1045E0003091EB003E7F3093EB003091ED003D7F4A
:1045F0003093ED003091EB0031603093EB0070931D
:10460000EC002093ED005093F0002091EE0027FD88
:10461000E5CF80E008958F708093E90081E00895F0
:104620008091B50287FF11C08091E80082FD05C02E
:104630008091B4028111F8CF11C08091E8008B778E
:104640000BC08091B402882349F08091E80080FF7C
:10465000F8CF8091E8008E778093E800089520914C
:10466000E4003091E50095E64091EC00842F8170E4
:1046700040FF23C08091E80080FD1DC08091B402FE
:10468000882399F0853099F08091EB0085FD11C069
:104690004091E4005091E5002417350729F391502B
:1046A00011F09A01E1CF84E0089582E0089583E05B
:1046B000089581E0089580E008954091E80042FF68
:1046C000DDCF08950E94D0230E94D823E0EEF0E0D1
:1046D000808181608083E8EDF0E080818F77808346
:1046E00019BCA7EDB0E08C918E7F8C9380818F7E7A
:1046F00080831092B30208950F931F93CF93DF939B
:104700000E94D0230E94D823C8EDD0E088818F7703
:10471000888388818068888388818F7D888319BC9D
:104720001092B4021092B0021092B2021092B10232
:1047300000EE10E0F80180818B7F808388818160AA
:10474000888342E060E080E00E94DB22E1EEF0E05E
:1047500080818E7F8083E2EEF0E0808181608083C3
:10476000808188608083F80180818E7F808388814A
:1047700080618883DF91CF911F910F910895E8EDBB
:10478000F0E080818F7E8083E7EDF0E080818160C2
:10479000808384E082BF81E08093B3020C947C2309
:1047A000E8EDF0E080818E7F80831092E200089532
:1047B0001092DA001092E10008951F920F920FB646
:1047C0000F9211242F933F934F935F936F937F9397
:1047D0008F939F93AF93BF93EF93FF938091E100EB
:1047E00082FF0BC08091E20082FF07C08091E10050
:1047F0008B7F8093E1000E9453268091DA0080FF36
:104800001FC08091D80080FF1BC08091DA008E7F8E
:104810008093DA008091D90080FF0DC080E189BDCE
:1048200082E189BD09B400FEFDCF81E08093B4022E
:104830000E94252005C019BC1092B4020E943320AA
:104840008091E10080FF19C08091E20080FF15C0D7
:104850008091E2008E7F8093E2008091E20080618F
:104860008093E2008091D80080628093D80019BCC8
:1048700085E08093B4020E9438208091E10084FF9B
:1048800030C08091E20084FF2CC080E189BD82E1CC
:1048900089BD09B400FEFDCF8091D8008F7D809343
:1048A000D8008091E1008F7E8093E1008091E2004A
:1048B0008F7E8093E2008091E20081608093E2002D
:1048C0008091B002882311F084E007C08091E3005A
:1048D00087FD02C081E001C083E08093B4020E94A2
:1048E00040208091E10083FF29C08091E20083FF96
:1048F00025C08091E100877F8093E10082E0809372
:10490000B4021092B0028091E1008E7F8093E100AA
:104910008091E2008E7F8093E2008091E2008061CE
:104920008093E20042E060E080E00E94DB22809120
:10493000F00088608093F0000E943620FF91EF9194
:10494000BF91AF919F918F917F916F915F914F91A7
:104950003F912F910F900FBE0F901F9018951F92AF
:104960000F920FB60F9211242F933F934F935F93A3
:104970006F937F938F939F93AF93BF93CF93DF9367
:10498000EF93FF93C091E900CF708091EC00D82F96
:10499000D17080FDD0E81092E9008091F000877F0F
:1049A0008093F00078940E94F3241092E9008091A3
:1049B000F00088608093F000CD2BCF70C093E900A9
:1049C000FF91EF91DF91CF91BF91AF919F918F9127
:1049D0007F916F915F914F913F912F910F900FBEFB
:1049E0000F901F9018951F93CF93DF93CDB7DEB72D
:1049F000AA970FB6F894DEBF0FBECDBFE5EBF2E08D
:104A00008091F100819322E0ED3BF207C9F70E940B
:104A10005E208091E80083FF2EC18091B5029091C5
:104A2000B602492F50E04A30510508F024C1FA017E
:104A3000EE59FF4F0C949526803821F0823809F00A
:104A40001AC108C08091B1029091B202992389F0F5
:104A500082600FC08091B9028F70873008F00BC15F
:104A60008093E9008091EB0085FB882780F9109204
:104A7000E9009091E800977F9093E8008093F1001F
:104A80001092F100D1C0282F2D7F09F0F4C08823A7
:104A900019F0823061F0EFC08091B702813009F0E7
:104AA000EAC0933009F080E08093B2022EC080917A
:104AB000B70281112AC08091B9028F702FEF280FA1
:104AC000263008F0D8C08093E9002091EB0020FF49
:104AD0001CC0933021F48091EB00806214C090914F
:104AE000EB0090619093EB0021E030E0A90102C05F
:104AF000440F551F8A95E2F74093EA001092EA00AE
:104B00008091EB0088608093EB001092E900809127
:104B1000E800877F8093E8000E941023ACC08111D9
:104B2000AAC01091B7021F778091E3008078812B93
:104B30008093E3008091E800877F8093E8000E94E3
:104B400010238091E80080FFFCCF8091E300806813
:104B50008093E300111102C082E001C083E08093E2
:104B6000B40289C08058823008F085C08091B702B5
:104B70009091B8028C3D53E0950779F583E08A83E4
:104B80008AE289834FB7F894DE01139620E03EE075
:104B900051E2E32FF0E050935700E49120FF03C06F
:104BA000E295EF703F5FEF708E2F90E0EA3010F0EB
:104BB000C79601C0C0968D939D932F5F243149F70E
:104BC0004FBF8091E800877F8093E8006AE270E041
:104BD000CE0101960E941C2216C06091B90270910C
:104BE000BA02AE014F5F5F4F0E946021BC01892B6A
:104BF00009F441C09091E800977F9093E800898183
:104C00009A810E947A228091E8008B778093E80055
:104C100032C0803881F58091E800877F8093E8007A
:104C20008091B0028093F1008091E8008E7772CF7E
:104C3000811121C08091B7029091B8029927029703
:104C4000D4F48091E800877F8093E8008091B702D8
:104C50008093B0020E9410238091B002811106C09F
:104C60008091E30087FD02C081E001C084E0809371
:104C7000B4020E944A208091E80083FF0AC080911C
:104C8000E800877F8093E8008091EB00806280934A
:104C9000EB00AA960FB6F894DEBF0FBECDBFDF9132
:104CA000CF911F9108950895CF938091B4028823E6
:104CB000A1F0C091E900CF709091EC00892F817034
:104CC00090FD80E8C82B1092E9008091E80083FDF8
:104CD0000E94F324CF70C093E900CF9108950E9401
:104CE00062231092B4020895E8EDF0E080818061C3
:104CF00080838AE18A95F1F700C08091D9008170A4
:104D0000089597FB072E16F4009407D077FD09D07D
:104D10000E949B2607FC05D03EF4909581959F4FFD
:104D20000895709561957F4F0895EE0FFF1F0590D0
:104D3000F491E02D0994AA1BBB1B51E107C0AA1FE7
:104D4000BB1FA617B70710F0A61BB70B881F991F2C
:104D50005A95A9F780959095BC01CD010895FB0166
:104D6000DC0104C08D910190801921F44150504024
:104D7000C8F7881B990B0895FB01DC0102C0019064
:104D80000D9241505040D8F70895F999FECF92BD49
:104D900081BDF89A992780B50895A8E1B0E042E076
:104DA00050E00C94F926262FF999FECF92BD81BDD3
:104DB000F89A019700B4021639F01FBA20BD0FB659
:104DC000F894FA9AF99A0FBE08950396272F0E9435
:104DD000D4260E94D326252F0E94D426242F0C945B
:104DE000D4260196272F0E94D4260C94D326DC01CA
:104DF000CB01FC01F999FECF06C0F2BDE1BDF89AE6
:104E0000319600B40D9241505040B8F70895F8948F
:024E1000FFCFD2
:104E1200C8001B02010000000100000000000000A9
:104E220006010000000407000000000000280850EE
:104E32003C0714A31FC61FA71F21201D20A61F0168
:104E4200E200E900EA00B500B600B700CD00830138
:104E5200CC008A019201940121022302240225023C
:104E6200260227022A02B300B4006F00700081827A
:104E720083E200E900EA00B500B600B700CD008386
:104E820001CC008A0192019401210223022402250D
:104E920002260227022A02B300B4006F00700081CA
:104EA2008283946697C63435F6F73133323642023E
:00000001FF
